{"abi":[{"type":"constructor","inputs":[{"name":"_platformWallet","type":"address","internalType":"address"}],"stateMutability":"nonpayable"},{"type":"function","name":"addContent","inputs":[{"name":"_pricePerSecond","type":"uint256","internalType":"uint256"},{"name":"_flatPrice","type":"uint256","internalType":"uint256"},{"name":"_contentUri","type":"string","internalType":"string"}],"outputs":[{"name":"","type":"uint256","internalType":"uint256"}],"stateMutability":"nonpayable"},{"type":"function","name":"addPendingPayment","inputs":[{"name":"user","type":"address","internalType":"address"},{"name":"amount","type":"uint256","internalType":"uint256"}],"outputs":[],"stateMutability":"nonpayable"},{"type":"function","name":"billSession","inputs":[{"name":"contentId","type":"uint256","internalType":"uint256"},{"name":"time","type":"uint256","internalType":"uint256"}],"outputs":[],"stateMutability":"nonpayable"},{"type":"function","name":"getTotalWatchTime","inputs":[{"name":"user","type":"address","internalType":"address"},{"name":"contentId","type":"uint256","internalType":"uint256"}],"outputs":[{"name":"","type":"uint256","internalType":"uint256"}],"stateMutability":"view"},{"type":"function","name":"pendingPayments","inputs":[{"name":"","type":"address","internalType":"address"}],"outputs":[{"name":"","type":"uint256","internalType":"uint256"}],"stateMutability":"view"},{"type":"function","name":"platformWallet","inputs":[],"outputs":[{"name":"","type":"address","internalType":"address"}],"stateMutability":"view"},{"type":"function","name":"totalWatchTime","inputs":[{"name":"","type":"address","internalType":"address"},{"name":"","type":"uint256","internalType":"uint256"}],"outputs":[{"name":"","type":"uint256","internalType":"uint256"}],"stateMutability":"view"},{"type":"function","name":"verifyPayment","inputs":[],"outputs":[],"stateMutability":"payable"},{"type":"event","name":"AddContent","inputs":[{"name":"id","type":"uint256","indexed":false,"internalType":"uint256"},{"name":"creator","type":"address","indexed":false,"internalType":"address"},{"name":"pricePerSecond","type":"uint256","indexed":false,"internalType":"uint256"},{"name":"flatPrice","type":"uint256","indexed":false,"internalType":"uint256"},{"name":"uri","type":"string","indexed":false,"internalType":"string"}],"anonymous":false},{"type":"event","name":"BillContent","inputs":[{"name":"user","type":"address","indexed":true,"internalType":"address"},{"name":"contentId","type":"uint256","indexed":false,"internalType":"uint256"},{"name":"time","type":"uint256","indexed":true,"internalType":"uint256"}],"anonymous":false}],"bytecode":{"object":"0x608060405234801561000f575f5ffd5b50604051610cc8380380610cc8833981810160405281019061003191906100d5565b8060035f6101000a81548173ffffffffffffffffffffffffffffffffffffffff021916908373ffffffffffffffffffffffffffffffffffffffff16021790555050610100565b5f5ffd5b5f73ffffffffffffffffffffffffffffffffffffffff82169050919050565b5f6100a48261007b565b9050919050565b6100b48161009a565b81146100be575f5ffd5b50565b5f815190506100cf816100ab565b92915050565b5f602082840312156100ea576100e9610077565b5b5f6100f7848285016100c1565b91505092915050565b610bbb8061010d5f395ff3fe60806040526004361061007a575f3560e01c8063ba5bea091161004d578063ba5bea091461015a578063e9d205ef14610182578063f72128171461018c578063fa2af9da146101c85761007a565b806338bce5991461007e5780634f0b2b36146100a65780637f38e526146100e2578063b3d5739c1461011e575b5f5ffd5b348015610089575f5ffd5b506100a4600480360381019061009f919061061b565b6101f2565b005b3480156100b1575f5ffd5b506100cc60048036038101906100c791906106b3565b6102a6565b6040516100d99190610700565b60405180910390f35b3480156100ed575f5ffd5b5061010860048036038101906101039190610719565b6102fb565b6040516101159190610700565b60405180910390f35b348015610129575f5ffd5b50610144600480360381019061013f91906107a5565b610310565b6040516101519190610700565b60405180910390f35b348015610165575f5ffd5b50610180600480360381019061017b91906106b3565b6103c3565b005b61018a61045c565b005b348015610197575f5ffd5b506101b260048036038101906101ad91906106b3565b61059c565b6040516101bf9190610700565b60405180910390f35b3480156101d3575f5ffd5b506101dc6105bb565b6040516101e99190610825565b60405180910390f35b805f5f3373ffffffffffffffffffffffffffffffffffffffff1673ffffffffffffffffffffffffffffffffffffffff1681526020019081526020015f205f8481526020019081526020015f205f82825461024c919061086b565b92505081905550803373ffffffffffffffffffffffffffffffffffffffff167f57b4a7585b927028e0742f026d752ab20af68696e04f7fcb88f0b765624d53618460405161029a9190610700565b60405180910390a35050565b5f5f5f8473ffffffffffffffffffffffffffffffffffffffff1673ffffffffffffffffffffffffffffffffffffffff1681526020019081526020015f205f8381526020019081526020015f2054905092915050565b6001602052805f5260405f205f915090505481565b5f5f85118061031e57505f84115b61035d576040517f08c379a0000000000000000000000000000000000000000000000000000000008152600401610354906108f8565b60405180910390fd5b5f60025f81548092919061037090610916565b9190505590507fd95f18deb055f4bf7e59be05d26edef68930ea4d8c42400494548486f086c6cb8133888888886040516103af969594939291906109a7565b60405180910390a180915050949350505050565b5f8111610405576040517f08c379a00000000000000000000000000000000000000000000000000000000081526004016103fc90610a71565b60405180910390fd5b8060015f8473ffffffffffffffffffffffffffffffffffffffff1673ffffffffffffffffffffffffffffffffffffffff1681526020019081526020015f205f828254610451919061086b565b925050819055505050565b5f60015f3373ffffffffffffffffffffffffffffffffffffffff1673ffffffffffffffffffffffffffffffffffffffff1681526020019081526020015f2054116104db576040517f08c379a00000000000000000000000000000000000000000000000000000000081526004016104d290610ad9565b60405180910390fd5b60015f3373ffffffffffffffffffffffffffffffffffffffff1673ffffffffffffffffffffffffffffffffffffffff1681526020019081526020015f2054341461055a576040517f08c379a000000000000000000000000000000000000000000000000000000000815260040161055190610b67565b60405180910390fd5b60015f3373ffffffffffffffffffffffffffffffffffffffff1673ffffffffffffffffffffffffffffffffffffffff1681526020019081526020015f205f9055565b5f602052815f5260405f20602052805f5260405f205f91509150505481565b60035f9054906101000a900473ffffffffffffffffffffffffffffffffffffffff1681565b5f5ffd5b5f5ffd5b5f819050919050565b6105fa816105e8565b8114610604575f5ffd5b50565b5f81359050610615816105f1565b92915050565b5f5f60408385031215610631576106306105e0565b5b5f61063e85828601610607565b925050602061064f85828601610607565b9150509250929050565b5f73ffffffffffffffffffffffffffffffffffffffff82169050919050565b5f61068282610659565b9050919050565b61069281610678565b811461069c575f5ffd5b50565b5f813590506106ad81610689565b92915050565b5f5f604083850312156106c9576106c86105e0565b5b5f6106d68582860161069f565b92505060206106e785828601610607565b9150509250929050565b6106fa816105e8565b82525050565b5f6020820190506107135f8301846106f1565b92915050565b5f6020828403121561072e5761072d6105e0565b5b5f61073b8482850161069f565b91505092915050565b5f5ffd5b5f5ffd5b5f5ffd5b5f5f83601f84011261076557610764610744565b5b8235905067ffffffffffffffff81111561078257610781610748565b5b60208301915083600182028301111561079e5761079d61074c565b5b9250929050565b5f5f5f5f606085870312156107bd576107bc6105e0565b5b5f6107ca87828801610607565b94505060206107db87828801610607565b935050604085013567ffffffffffffffff8111156107fc576107fb6105e4565b5b61080887828801610750565b925092505092959194509250565b61081f81610678565b82525050565b5f6020820190506108385f830184610816565b92915050565b7f4e487b71000000000000000000000000000000000000000000000000000000005f52601160045260245ffd5b5f610875826105e8565b9150610880836105e8565b92508282019050808211156108985761089761083e565b5b92915050565b5f82825260208201905092915050565b7f496e76616c69642070726963696e6700000000000000000000000000000000005f82015250565b5f6108e2600f8361089e565b91506108ed826108ae565b602082019050919050565b5f6020820190508181035f83015261090f816108d6565b9050919050565b5f610920826105e8565b91507fffffffffffffffffffffffffffffffffffffffffffffffffffffffffffffffff82036109525761095161083e565b5b600182019050919050565b828183375f83830152505050565b5f601f19601f8301169050919050565b5f610986838561089e565b935061099383858461095d565b61099c8361096b565b840190509392505050565b5f60a0820190506109ba5f8301896106f1565b6109c76020830188610816565b6109d460408301876106f1565b6109e160608301866106f1565b81810360808301526109f481848661097b565b9050979650505050505050565b7f5061796d656e7420616d6f756e74206d757374206265206772656174657220745f8201527f68616e2030000000000000000000000000000000000000000000000000000000602082015250565b5f610a5b60258361089e565b9150610a6682610a01565b604082019050919050565b5f6020820190508181035f830152610a8881610a4f565b9050919050565b7f4e6f2070656e64696e67207061796d656e7473000000000000000000000000005f82015250565b5f610ac360138361089e565b9150610ace82610a8f565b602082019050919050565b5f6020820190508181035f830152610af081610ab7565b9050919050565b7f5061796d656e7420616d6f756e74206d757374206d61746368207468652072655f8201527f7175657374656420616d6f756e74000000000000000000000000000000000000602082015250565b5f610b51602e8361089e565b9150610b5c82610af7565b604082019050919050565b5f6020820190508181035f830152610b7e81610b45565b905091905056fea2646970667358221220cce18e002abf6c5e92bafb22e7b8eea0d0fb709b100e5b174775ad94ff307a3764736f6c634300081c0033","linkReferences":{}},"methodIdentifiers":{"addContent(uint256,uint256,string)":"b3d5739c","addPendingPayment(address,uint256)":"ba5bea09","billSession(uint256,uint256)":"38bce599","getTotalWatchTime(address,uint256)":"4f0b2b36","pendingPayments(address)":"7f38e526","platformWallet()":"fa2af9da","totalWatchTime(address,uint256)":"f7212817","verifyPayment()":"e9d205ef"},"id":1}