{
	"data": {
		"bytecode": {
			"linkReferences": {},
			"object": "608060405234801561000f575f80fd5b50604051611ca1380380611ca1833981810160405281019061003191906100d5565b8060045f6101000a81548173ffffffffffffffffffffffffffffffffffffffff021916908373ffffffffffffffffffffffffffffffffffffffff16021790555050610100565b5f80fd5b5f73ffffffffffffffffffffffffffffffffffffffff82169050919050565b5f6100a48261007b565b9050919050565b6100b48161009a565b81146100be575f80fd5b50565b5f815190506100cf816100ab565b92915050565b5f602082840312156100ea576100e9610077565b5b5f6100f7848285016100c1565b91505092915050565b611b948061010d5f395ff3fe6080604052600436106100dc575f3560e01c8063a497aeab1161007e578063baa0b80611610058578063baa0b806146102e1578063d922610514610321578063f3b65fb214610360578063fa2af9da14610388576100dc565b8063a497aeab14610241578063b3d5739c1461027d578063ba5bea09146102b9576100dc565b806369322438116100ba5780636932243814610162578063746ff13d1461019e5780637f38e526146101c65780638585205514610202576100dc565b806318499170146100e05780631df9feaa146101085780633b5f351b14610124575b5f80fd5b3480156100eb575f80fd5b5061010660048036038101906101019190611061565b6103b2565b005b610122600480360381019061011d9190611061565b6103f8565b005b34801561012f575f80fd5b5061014a600480360381019061014591906110bf565b610539565b60405161015993929190611113565b60405180910390f35b34801561016d575f80fd5b50610188600480360381019061018391906110bf565b610689565b6040516101959190611157565b60405180910390f35b3480156101a9575f80fd5b506101c460048036038101906101bf91906110bf565b6106c3565b005b3480156101d1575f80fd5b506101ec60048036038101906101e79190611061565b6108e1565b6040516101f99190611170565b60405180910390f35b34801561020d575f80fd5b5061022860048036038101906102239190611189565b6108f6565b60405161023894939291906111c7565b60405180910390f35b34801561024c575f80fd5b50610267600480360381019061026291906110bf565b610939565b604051610274919061127a565b60405180910390f35b348015610288575f80fd5b506102a3600480360381019061029e91906112fb565b610a3b565b6040516102b09190611170565b60405180910390f35b3480156102c4575f80fd5b506102df60048036038101906102da919061136c565b610c21565b005b3480156102ec575f80fd5b50610307600480360381019061030291906110bf565b610cba565b6040516103189594939291906113aa565b60405180910390f35b34801561032c575f80fd5b5061034760048036038101906103429190611189565b610d9c565b60405161035794939291906111c7565b60405180910390f35b34801561036b575f80fd5b50610386600480360381019061038191906110bf565b610e56565b005b348015610393575f80fd5b5061039c610fda565b6040516103a99190611157565b60405180910390f35b8073ffffffffffffffffffffffffffffffffffffffff167fc3e987631a4a29d4d5f7349f211a939755857def8e62217339e16c65d8b4dc2e60405160405180910390a250565b5f60025f8373ffffffffffffffffffffffffffffffffffffffff1673ffffffffffffffffffffffffffffffffffffffff1681526020019081526020015f205411610477576040517f08c379a000000000000000000000000000000000000000000000000000000000815260040161046e9061144c565b60405180910390fd5b60025f8273ffffffffffffffffffffffffffffffffffffffff1673ffffffffffffffffffffffffffffffffffffffff1681526020019081526020015f205434146104f6576040517f08c379a00000000000000000000000000000000000000000000000000000000081526004016104ed906114da565b60405180910390fd5b60025f8273ffffffffffffffffffffffffffffffffffffffff1673ffffffffffffffffffffffffffffffffffffffff1681526020019081526020015f205f905550565b5f805f805f808681526020019081526020015f206040518060a00160405290815f82015f9054906101000a900473ffffffffffffffffffffffffffffffffffffffff1673ffffffffffffffffffffffffffffffffffffffff1673ffffffffffffffffffffffffffffffffffffffff1681526020016001820154815260200160028201548152602001600382015f9054906101000a900460ff161515151581526020016004820180546105ea90611525565b80601f016020809104026020016040519081016040528092919081815260200182805461061690611525565b80156106615780601f1061063857610100808354040283529160200191610661565b820191905f5260205f20905b81548152906001019060200180831161064457829003601f168201915b5050505050815250509050806020015181604001518260600151935093509350509193909250565b5f805f8381526020019081526020015f205f015f9054906101000a900473ffffffffffffffffffffffffffffffffffffffff169050919050565b5f60015f8381526020019081526020015f205f3373ffffffffffffffffffffffffffffffffffffffff1673ffffffffffffffffffffffffffffffffffffffff1681526020019081526020015f209050806002015f9054906101000a900460ff16610762576040517f08c379a00000000000000000000000000000000000000000000000000000000081526004016107599061159f565b60405180910390fd5b5f805f8481526020019081526020015f2090505f816001015411156107c4575f82600101544261079291906115ea565b90505f8260010154826107a5919061161d565b905080846003015f8282546107ba919061165e565b9250508190555050505b5f8260030154905060015f8581526020019081526020015f205f3373ffffffffffffffffffffffffffffffffffffffff1673ffffffffffffffffffffffffffffffffffffffff1681526020019081526020015f205f8082015f9055600182015f9055600282015f6101000a81549060ff0219169055600382015f90555050803373ffffffffffffffffffffffffffffffffffffffff165f808781526020019081526020015f205f015f9054906101000a900473ffffffffffffffffffffffffffffffffffffffff1673ffffffffffffffffffffffffffffffffffffffff167f3174d139afbcb29d1508f42509b8b84b5ad331ba22dbf220b88482c608f0ec8987426040516108d3929190611691565b60405180910390a450505050565b6002602052805f5260405f205f915090505481565b6001602052815f5260405f20602052805f5260405f205f9150915050805f015490806001015490806002015f9054906101000a900460ff16908060030154905084565b60605f808381526020019081526020015f206003015f9054906101000a900460ff1661099a576040517f08c379a000000000000000000000000000000000000000000000000000000000815260040161099190611702565b60405180910390fd5b5f808381526020019081526020015f2060040180546109b890611525565b80601f01602080910402602001604051908101604052809291908181526020018280546109e490611525565b8015610a2f5780601f10610a0657610100808354040283529160200191610a2f565b820191905f5260205f20905b815481529060010190602001808311610a1257829003601f168201915b50505050509050919050565b5f80851180610a4957505f84115b610a88576040517f08c379a0000000000000000000000000000000000000000000000000000000008152600401610a7f9061176a565b60405180910390fd5b5f60035f815480929190610a9b90611788565b9190505590506040518060a001604052803373ffffffffffffffffffffffffffffffffffffffff16815260200187815260200186815260200160011515815260200185858080601f0160208091040260200160405190810160405280939291908181526020018383808284375f81840152601f19601f820116905080830192505050505050508152505f808381526020019081526020015f205f820151815f015f6101000a81548173ffffffffffffffffffffffffffffffffffffffff021916908373ffffffffffffffffffffffffffffffffffffffff16021790555060208201518160010155604082015181600201556060820151816003015f6101000a81548160ff0219169083151502179055506080820151816004019081610bc09190611999565b509050503373ffffffffffffffffffffffffffffffffffffffff16817fafe0f4381780af81bc7e650445fe93d58aa20d51dfe209b88056bc7bd0d37c558888604051610c0d929190611691565b60405180910390a380915050949350505050565b5f8111610c63576040517f08c379a0000000000000000000000000000000000000000000000000000000008152600401610c5a90611ad8565b60405180910390fd5b8060025f8473ffffffffffffffffffffffffffffffffffffffff1673ffffffffffffffffffffffffffffffffffffffff1681526020019081526020015f205f828254610caf919061165e565b925050819055505050565b5f602052805f5260405f205f91509050805f015f9054906101000a900473ffffffffffffffffffffffffffffffffffffffff1690806001015490806002015490806003015f9054906101000a900460ff1690806004018054610d1b90611525565b80601f0160208091040260200160405190810160405280929190818152602001828054610d4790611525565b8015610d925780601f10610d6957610100808354040283529160200191610d92565b820191905f5260205f20905b815481529060010190602001808311610d7557829003601f168201915b5050505050905085565b5f805f805f60015f8881526020019081526020015f205f8773ffffffffffffffffffffffffffffffffffffffff1673ffffffffffffffffffffffffffffffffffffffff1681526020019081526020015f206040518060800160405290815f820154815260200160018201548152602001600282015f9054906101000a900460ff161515151581526020016003820154815250509050805f015181602001518260400151836060015194509450945094505092959194509250565b5f805f8381526020019081526020015f209050806003015f9054906101000a900460ff16610eb9576040517f08c379a0000000000000000000000000000000000000000000000000000000008152600401610eb090611702565b60405180910390fd5b5f60015f8481526020019081526020015f205f3373ffffffffffffffffffffffffffffffffffffffff1673ffffffffffffffffffffffffffffffffffffffff1681526020019081526020015f209050806002015f9054906101000a900460ff1615610f59576040517f08c379a0000000000000000000000000000000000000000000000000000000008152600401610f5090611b40565b60405180910390fd5b42815f01819055504281600101819055506001816002015f6101000a81548160ff0219169083151502179055503373ffffffffffffffffffffffffffffffffffffffff16837f765ee4960f08aad7cf496291097a74b71ac25b0cda25bfce2a1651c822fb573842604051610fcd9190611170565b60405180910390a3505050565b60045f9054906101000a900473ffffffffffffffffffffffffffffffffffffffff1681565b5f80fd5b5f80fd5b5f73ffffffffffffffffffffffffffffffffffffffff82169050919050565b5f61103082611007565b9050919050565b61104081611026565b811461104a575f80fd5b50565b5f8135905061105b81611037565b92915050565b5f6020828403121561107657611075610fff565b5b5f6110838482850161104d565b91505092915050565b5f819050919050565b61109e8161108c565b81146110a8575f80fd5b50565b5f813590506110b981611095565b92915050565b5f602082840312156110d4576110d3610fff565b5b5f6110e1848285016110ab565b91505092915050565b6110f38161108c565b82525050565b5f8115159050919050565b61110d816110f9565b82525050565b5f6060820190506111265f8301866110ea565b61113360208301856110ea565b6111406040830184611104565b949350505050565b61115181611026565b82525050565b5f60208201905061116a5f830184611148565b92915050565b5f6020820190506111835f8301846110ea565b92915050565b5f806040838503121561119f5761119e610fff565b5b5f6111ac858286016110ab565b92505060206111bd8582860161104d565b9150509250929050565b5f6080820190506111da5f8301876110ea565b6111e760208301866110ea565b6111f46040830185611104565b61120160608301846110ea565b95945050505050565b5f81519050919050565b5f82825260208201905092915050565b8281835e5f83830152505050565b5f601f19601f8301169050919050565b5f61124c8261120a565b6112568185611214565b9350611266818560208601611224565b61126f81611232565b840191505092915050565b5f6020820190508181035f8301526112928184611242565b905092915050565b5f80fd5b5f80fd5b5f80fd5b5f8083601f8401126112bb576112ba61129a565b5b8235905067ffffffffffffffff8111156112d8576112d761129e565b5b6020830191508360018202830111156112f4576112f36112a2565b5b9250929050565b5f805f806060858703121561131357611312610fff565b5b5f611320878288016110ab565b9450506020611331878288016110ab565b935050604085013567ffffffffffffffff81111561135257611351611003565b5b61135e878288016112a6565b925092505092959194509250565b5f806040838503121561138257611381610fff565b5b5f61138f8582860161104d565b92505060206113a0858286016110ab565b9150509250929050565b5f60a0820190506113bd5f830188611148565b6113ca60208301876110ea565b6113d760408301866110ea565b6113e46060830185611104565b81810360808301526113f68184611242565b90509695505050505050565b7f4e6f2070656e64696e67207061796d656e7473000000000000000000000000005f82015250565b5f611436601383611214565b915061144182611402565b602082019050919050565b5f6020820190508181035f8301526114638161142a565b9050919050565b7f5061796d656e7420616d6f756e74206d757374206d61746368207468652072655f8201527f7175657374656420616d6f756e74000000000000000000000000000000000000602082015250565b5f6114c4602e83611214565b91506114cf8261146a565b604082019050919050565b5f6020820190508181035f8301526114f1816114b8565b9050919050565b7f4e487b71000000000000000000000000000000000000000000000000000000005f52602260045260245ffd5b5f600282049050600182168061153c57607f821691505b60208210810361154f5761154e6114f8565b5b50919050565b7f53747265616d206e6f74206163746976650000000000000000000000000000005f82015250565b5f611589601183611214565b915061159482611555565b602082019050919050565b5f6020820190508181035f8301526115b68161157d565b9050919050565b7f4e487b71000000000000000000000000000000000000000000000000000000005f52601160045260245ffd5b5f6115f48261108c565b91506115ff8361108c565b9250828203905081811115611617576116166115bd565b5b92915050565b5f6116278261108c565b91506116328361108c565b92508282026116408161108c565b91508282048414831517611657576116566115bd565b5b5092915050565b5f6116688261108c565b91506116738361108c565b925082820190508082111561168b5761168a6115bd565b5b92915050565b5f6040820190506116a45f8301856110ea565b6116b160208301846110ea565b9392505050565b7f436f6e74656e74206e6f7420617661696c61626c6500000000000000000000005f82015250565b5f6116ec601583611214565b91506116f7826116b8565b602082019050919050565b5f6020820190508181035f830152611719816116e0565b9050919050565b7f496e76616c69642070726963696e6700000000000000000000000000000000005f82015250565b5f611754600f83611214565b915061175f82611720565b602082019050919050565b5f6020820190508181035f83015261178181611748565b9050919050565b5f6117928261108c565b91507fffffffffffffffffffffffffffffffffffffffffffffffffffffffffffffffff82036117c4576117c36115bd565b5b600182019050919050565b7f4e487b71000000000000000000000000000000000000000000000000000000005f52604160045260245ffd5b5f819050815f5260205f209050919050565b5f6020601f8301049050919050565b5f82821b905092915050565b5f600883026118587fffffffffffffffffffffffffffffffffffffffffffffffffffffffffffffffff8261181d565b611862868361181d565b95508019841693508086168417925050509392505050565b5f819050919050565b5f61189d6118986118938461108c565b61187a565b61108c565b9050919050565b5f819050919050565b6118b683611883565b6118ca6118c2826118a4565b848454611829565b825550505050565b5f90565b6118de6118d2565b6118e98184846118ad565b505050565b5b8181101561190c576119015f826118d6565b6001810190506118ef565b5050565b601f82111561195157611922816117fc565b61192b8461180e565b8101602085101561193a578190505b61194e6119468561180e565b8301826118ee565b50505b505050565b5f82821c905092915050565b5f6119715f1984600802611956565b1980831691505092915050565b5f6119898383611962565b9150826002028217905092915050565b6119a28261120a565b67ffffffffffffffff8111156119bb576119ba6117cf565b5b6119c58254611525565b6119d0828285611910565b5f60209050601f831160018114611a01575f84156119ef578287015190505b6119f9858261197e565b865550611a60565b601f198416611a0f866117fc565b5f5b82811015611a3657848901518255600182019150602085019450602081019050611a11565b86831015611a535784890151611a4f601f891682611962565b8355505b6001600288020188555050505b505050505050565b7f5061796d656e7420616d6f756e74206d757374206265206772656174657220745f8201527f68616e2030000000000000000000000000000000000000000000000000000000602082015250565b5f611ac2602583611214565b9150611acd82611a68565b604082019050919050565b5f6020820190508181035f830152611aef81611ab6565b9050919050565b7f53747265616d20616c72656164792061637469766500000000000000000000005f82015250565b5f611b2a601583611214565b9150611b3582611af6565b602082019050919050565b5f6020820190508181035f830152611b5781611b1e565b905091905056fea2646970667358221220104046c503f12f88b30f6ba0d6d11acbd8ab4c90a04dcfc60b8b3eb6251c474864736f6c634300081a0033",
			"opcodes": "PUSH1 0x80 PUSH1 0x40 MSTORE CALLVALUE DUP1 ISZERO PUSH2 0xF JUMPI PUSH0 DUP1 REVERT JUMPDEST POP PUSH1 0x40 MLOAD PUSH2 0x1CA1 CODESIZE SUB DUP1 PUSH2 0x1CA1 DUP4 CODECOPY DUP2 DUP2 ADD PUSH1 0x40 MSTORE DUP2 ADD SWAP1 PUSH2 0x31 SWAP2 SWAP1 PUSH2 0xD5 JUMP JUMPDEST DUP1 PUSH1 0x4 PUSH0 PUSH2 0x100 EXP DUP2 SLOAD DUP2 PUSH20 0xFFFFFFFFFFFFFFFFFFFFFFFFFFFFFFFFFFFFFFFF MUL NOT AND SWAP1 DUP4 PUSH20 0xFFFFFFFFFFFFFFFFFFFFFFFFFFFFFFFFFFFFFFFF AND MUL OR SWAP1 SSTORE POP POP PUSH2 0x100 JUMP JUMPDEST PUSH0 DUP1 REVERT JUMPDEST PUSH0 PUSH20 0xFFFFFFFFFFFFFFFFFFFFFFFFFFFFFFFFFFFFFFFF DUP3 AND SWAP1 POP SWAP2 SWAP1 POP JUMP JUMPDEST PUSH0 PUSH2 0xA4 DUP3 PUSH2 0x7B JUMP JUMPDEST SWAP1 POP SWAP2 SWAP1 POP JUMP JUMPDEST PUSH2 0xB4 DUP2 PUSH2 0x9A JUMP JUMPDEST DUP2 EQ PUSH2 0xBE JUMPI PUSH0 DUP1 REVERT JUMPDEST POP JUMP JUMPDEST PUSH0 DUP2 MLOAD SWAP1 POP PUSH2 0xCF DUP2 PUSH2 0xAB JUMP JUMPDEST SWAP3 SWAP2 POP POP JUMP JUMPDEST PUSH0 PUSH1 0x20 DUP3 DUP5 SUB SLT ISZERO PUSH2 0xEA JUMPI PUSH2 0xE9 PUSH2 0x77 JUMP JUMPDEST JUMPDEST PUSH0 PUSH2 0xF7 DUP5 DUP3 DUP6 ADD PUSH2 0xC1 JUMP JUMPDEST SWAP2 POP POP SWAP3 SWAP2 POP POP JUMP JUMPDEST PUSH2 0x1B94 DUP1 PUSH2 0x10D PUSH0 CODECOPY PUSH0 RETURN INVALID PUSH1 0x80 PUSH1 0x40 MSTORE PUSH1 0x4 CALLDATASIZE LT PUSH2 0xDC JUMPI PUSH0 CALLDATALOAD PUSH1 0xE0 SHR DUP1 PUSH4 0xA497AEAB GT PUSH2 0x7E JUMPI DUP1 PUSH4 0xBAA0B806 GT PUSH2 0x58 JUMPI DUP1 PUSH4 0xBAA0B806 EQ PUSH2 0x2E1 JUMPI DUP1 PUSH4 0xD9226105 EQ PUSH2 0x321 JUMPI DUP1 PUSH4 0xF3B65FB2 EQ PUSH2 0x360 JUMPI DUP1 PUSH4 0xFA2AF9DA EQ PUSH2 0x388 JUMPI PUSH2 0xDC JUMP JUMPDEST DUP1 PUSH4 0xA497AEAB EQ PUSH2 0x241 JUMPI DUP1 PUSH4 0xB3D5739C EQ PUSH2 0x27D JUMPI DUP1 PUSH4 0xBA5BEA09 EQ PUSH2 0x2B9 JUMPI PUSH2 0xDC JUMP JUMPDEST DUP1 PUSH4 0x69322438 GT PUSH2 0xBA JUMPI DUP1 PUSH4 0x69322438 EQ PUSH2 0x162 JUMPI DUP1 PUSH4 0x746FF13D EQ PUSH2 0x19E JUMPI DUP1 PUSH4 0x7F38E526 EQ PUSH2 0x1C6 JUMPI DUP1 PUSH4 0x85852055 EQ PUSH2 0x202 JUMPI PUSH2 0xDC JUMP JUMPDEST DUP1 PUSH4 0x18499170 EQ PUSH2 0xE0 JUMPI DUP1 PUSH4 0x1DF9FEAA EQ PUSH2 0x108 JUMPI DUP1 PUSH4 0x3B5F351B EQ PUSH2 0x124 JUMPI JUMPDEST PUSH0 DUP1 REVERT JUMPDEST CALLVALUE DUP1 ISZERO PUSH2 0xEB JUMPI PUSH0 DUP1 REVERT JUMPDEST POP PUSH2 0x106 PUSH1 0x4 DUP1 CALLDATASIZE SUB DUP2 ADD SWAP1 PUSH2 0x101 SWAP2 SWAP1 PUSH2 0x1061 JUMP JUMPDEST PUSH2 0x3B2 JUMP JUMPDEST STOP JUMPDEST PUSH2 0x122 PUSH1 0x4 DUP1 CALLDATASIZE SUB DUP2 ADD SWAP1 PUSH2 0x11D SWAP2 SWAP1 PUSH2 0x1061 JUMP JUMPDEST PUSH2 0x3F8 JUMP JUMPDEST STOP JUMPDEST CALLVALUE DUP1 ISZERO PUSH2 0x12F JUMPI PUSH0 DUP1 REVERT JUMPDEST POP PUSH2 0x14A PUSH1 0x4 DUP1 CALLDATASIZE SUB DUP2 ADD SWAP1 PUSH2 0x145 SWAP2 SWAP1 PUSH2 0x10BF JUMP JUMPDEST PUSH2 0x539 JUMP JUMPDEST PUSH1 0x40 MLOAD PUSH2 0x159 SWAP4 SWAP3 SWAP2 SWAP1 PUSH2 0x1113 JUMP JUMPDEST PUSH1 0x40 MLOAD DUP1 SWAP2 SUB SWAP1 RETURN JUMPDEST CALLVALUE DUP1 ISZERO PUSH2 0x16D JUMPI PUSH0 DUP1 REVERT JUMPDEST POP PUSH2 0x188 PUSH1 0x4 DUP1 CALLDATASIZE SUB DUP2 ADD SWAP1 PUSH2 0x183 SWAP2 SWAP1 PUSH2 0x10BF JUMP JUMPDEST PUSH2 0x689 JUMP JUMPDEST PUSH1 0x40 MLOAD PUSH2 0x195 SWAP2 SWAP1 PUSH2 0x1157 JUMP JUMPDEST PUSH1 0x40 MLOAD DUP1 SWAP2 SUB SWAP1 RETURN JUMPDEST CALLVALUE DUP1 ISZERO PUSH2 0x1A9 JUMPI PUSH0 DUP1 REVERT JUMPDEST POP PUSH2 0x1C4 PUSH1 0x4 DUP1 CALLDATASIZE SUB DUP2 ADD SWAP1 PUSH2 0x1BF SWAP2 SWAP1 PUSH2 0x10BF JUMP JUMPDEST PUSH2 0x6C3 JUMP JUMPDEST STOP JUMPDEST CALLVALUE DUP1 ISZERO PUSH2 0x1D1 JUMPI PUSH0 DUP1 REVERT JUMPDEST POP PUSH2 0x1EC PUSH1 0x4 DUP1 CALLDATASIZE SUB DUP2 ADD SWAP1 PUSH2 0x1E7 SWAP2 SWAP1 PUSH2 0x1061 JUMP JUMPDEST PUSH2 0x8E1 JUMP JUMPDEST PUSH1 0x40 MLOAD PUSH2 0x1F9 SWAP2 SWAP1 PUSH2 0x1170 JUMP JUMPDEST PUSH1 0x40 MLOAD DUP1 SWAP2 SUB SWAP1 RETURN JUMPDEST CALLVALUE DUP1 ISZERO PUSH2 0x20D JUMPI PUSH0 DUP1 REVERT JUMPDEST POP PUSH2 0x228 PUSH1 0x4 DUP1 CALLDATASIZE SUB DUP2 ADD SWAP1 PUSH2 0x223 SWAP2 SWAP1 PUSH2 0x1189 JUMP JUMPDEST PUSH2 0x8F6 JUMP JUMPDEST PUSH1 0x40 MLOAD PUSH2 0x238 SWAP5 SWAP4 SWAP3 SWAP2 SWAP1 PUSH2 0x11C7 JUMP JUMPDEST PUSH1 0x40 MLOAD DUP1 SWAP2 SUB SWAP1 RETURN JUMPDEST CALLVALUE DUP1 ISZERO PUSH2 0x24C JUMPI PUSH0 DUP1 REVERT JUMPDEST POP PUSH2 0x267 PUSH1 0x4 DUP1 CALLDATASIZE SUB DUP2 ADD SWAP1 PUSH2 0x262 SWAP2 SWAP1 PUSH2 0x10BF JUMP JUMPDEST PUSH2 0x939 JUMP JUMPDEST PUSH1 0x40 MLOAD PUSH2 0x274 SWAP2 SWAP1 PUSH2 0x127A JUMP JUMPDEST PUSH1 0x40 MLOAD DUP1 SWAP2 SUB SWAP1 RETURN JUMPDEST CALLVALUE DUP1 ISZERO PUSH2 0x288 JUMPI PUSH0 DUP1 REVERT JUMPDEST POP PUSH2 0x2A3 PUSH1 0x4 DUP1 CALLDATASIZE SUB DUP2 ADD SWAP1 PUSH2 0x29E SWAP2 SWAP1 PUSH2 0x12FB JUMP JUMPDEST PUSH2 0xA3B JUMP JUMPDEST PUSH1 0x40 MLOAD PUSH2 0x2B0 SWAP2 SWAP1 PUSH2 0x1170 JUMP JUMPDEST PUSH1 0x40 MLOAD DUP1 SWAP2 SUB SWAP1 RETURN JUMPDEST CALLVALUE DUP1 ISZERO PUSH2 0x2C4 JUMPI PUSH0 DUP1 REVERT JUMPDEST POP PUSH2 0x2DF PUSH1 0x4 DUP1 CALLDATASIZE SUB DUP2 ADD SWAP1 PUSH2 0x2DA SWAP2 SWAP1 PUSH2 0x136C JUMP JUMPDEST PUSH2 0xC21 JUMP JUMPDEST STOP JUMPDEST CALLVALUE DUP1 ISZERO PUSH2 0x2EC JUMPI PUSH0 DUP1 REVERT JUMPDEST POP PUSH2 0x307 PUSH1 0x4 DUP1 CALLDATASIZE SUB DUP2 ADD SWAP1 PUSH2 0x302 SWAP2 SWAP1 PUSH2 0x10BF JUMP JUMPDEST PUSH2 0xCBA JUMP JUMPDEST PUSH1 0x40 MLOAD PUSH2 0x318 SWAP6 SWAP5 SWAP4 SWAP3 SWAP2 SWAP1 PUSH2 0x13AA JUMP JUMPDEST PUSH1 0x40 MLOAD DUP1 SWAP2 SUB SWAP1 RETURN JUMPDEST CALLVALUE DUP1 ISZERO PUSH2 0x32C JUMPI PUSH0 DUP1 REVERT JUMPDEST POP PUSH2 0x347 PUSH1 0x4 DUP1 CALLDATASIZE SUB DUP2 ADD SWAP1 PUSH2 0x342 SWAP2 SWAP1 PUSH2 0x1189 JUMP JUMPDEST PUSH2 0xD9C JUMP JUMPDEST PUSH1 0x40 MLOAD PUSH2 0x357 SWAP5 SWAP4 SWAP3 SWAP2 SWAP1 PUSH2 0x11C7 JUMP JUMPDEST PUSH1 0x40 MLOAD DUP1 SWAP2 SUB SWAP1 RETURN JUMPDEST CALLVALUE DUP1 ISZERO PUSH2 0x36B JUMPI PUSH0 DUP1 REVERT JUMPDEST POP PUSH2 0x386 PUSH1 0x4 DUP1 CALLDATASIZE SUB DUP2 ADD SWAP1 PUSH2 0x381 SWAP2 SWAP1 PUSH2 0x10BF JUMP JUMPDEST PUSH2 0xE56 JUMP JUMPDEST STOP JUMPDEST CALLVALUE DUP1 ISZERO PUSH2 0x393 JUMPI PUSH0 DUP1 REVERT JUMPDEST POP PUSH2 0x39C PUSH2 0xFDA JUMP JUMPDEST PUSH1 0x40 MLOAD PUSH2 0x3A9 SWAP2 SWAP1 PUSH2 0x1157 JUMP JUMPDEST PUSH1 0x40 MLOAD DUP1 SWAP2 SUB SWAP1 RETURN JUMPDEST DUP1 PUSH20 0xFFFFFFFFFFFFFFFFFFFFFFFFFFFFFFFFFFFFFFFF AND PUSH32 0xC3E987631A4A29D4D5F7349F211A939755857DEF8E62217339E16C65D8B4DC2E PUSH1 0x40 MLOAD PUSH1 0x40 MLOAD DUP1 SWAP2 SUB SWAP1 LOG2 POP JUMP JUMPDEST PUSH0 PUSH1 0x2 PUSH0 DUP4 PUSH20 0xFFFFFFFFFFFFFFFFFFFFFFFFFFFFFFFFFFFFFFFF AND PUSH20 0xFFFFFFFFFFFFFFFFFFFFFFFFFFFFFFFFFFFFFFFF AND DUP2 MSTORE PUSH1 0x20 ADD SWAP1 DUP2 MSTORE PUSH1 0x20 ADD PUSH0 KECCAK256 SLOAD GT PUSH2 0x477 JUMPI PUSH1 0x40 MLOAD PUSH32 0x8C379A000000000000000000000000000000000000000000000000000000000 DUP2 MSTORE PUSH1 0x4 ADD PUSH2 0x46E SWAP1 PUSH2 0x144C JUMP JUMPDEST PUSH1 0x40 MLOAD DUP1 SWAP2 SUB SWAP1 REVERT JUMPDEST PUSH1 0x2 PUSH0 DUP3 PUSH20 0xFFFFFFFFFFFFFFFFFFFFFFFFFFFFFFFFFFFFFFFF AND PUSH20 0xFFFFFFFFFFFFFFFFFFFFFFFFFFFFFFFFFFFFFFFF AND DUP2 MSTORE PUSH1 0x20 ADD SWAP1 DUP2 MSTORE PUSH1 0x20 ADD PUSH0 KECCAK256 SLOAD CALLVALUE EQ PUSH2 0x4F6 JUMPI PUSH1 0x40 MLOAD PUSH32 0x8C379A000000000000000000000000000000000000000000000000000000000 DUP2 MSTORE PUSH1 0x4 ADD PUSH2 0x4ED SWAP1 PUSH2 0x14DA JUMP JUMPDEST PUSH1 0x40 MLOAD DUP1 SWAP2 SUB SWAP1 REVERT JUMPDEST PUSH1 0x2 PUSH0 DUP3 PUSH20 0xFFFFFFFFFFFFFFFFFFFFFFFFFFFFFFFFFFFFFFFF AND PUSH20 0xFFFFFFFFFFFFFFFFFFFFFFFFFFFFFFFFFFFFFFFF AND DUP2 MSTORE PUSH1 0x20 ADD SWAP1 DUP2 MSTORE PUSH1 0x20 ADD PUSH0 KECCAK256 PUSH0 SWAP1 SSTORE POP JUMP JUMPDEST PUSH0 DUP1 PUSH0 DUP1 PUSH0 DUP1 DUP7 DUP2 MSTORE PUSH1 0x20 ADD SWAP1 DUP2 MSTORE PUSH1 0x20 ADD PUSH0 KECCAK256 PUSH1 0x40 MLOAD DUP1 PUSH1 0xA0 ADD PUSH1 0x40 MSTORE SWAP1 DUP2 PUSH0 DUP3 ADD PUSH0 SWAP1 SLOAD SWAP1 PUSH2 0x100 EXP SWAP1 DIV PUSH20 0xFFFFFFFFFFFFFFFFFFFFFFFFFFFFFFFFFFFFFFFF AND PUSH20 0xFFFFFFFFFFFFFFFFFFFFFFFFFFFFFFFFFFFFFFFF AND PUSH20 0xFFFFFFFFFFFFFFFFFFFFFFFFFFFFFFFFFFFFFFFF AND DUP2 MSTORE PUSH1 0x20 ADD PUSH1 0x1 DUP3 ADD SLOAD DUP2 MSTORE PUSH1 0x20 ADD PUSH1 0x2 DUP3 ADD SLOAD DUP2 MSTORE PUSH1 0x20 ADD PUSH1 0x3 DUP3 ADD PUSH0 SWAP1 SLOAD SWAP1 PUSH2 0x100 EXP SWAP1 DIV PUSH1 0xFF AND ISZERO ISZERO ISZERO ISZERO DUP2 MSTORE PUSH1 0x20 ADD PUSH1 0x4 DUP3 ADD DUP1 SLOAD PUSH2 0x5EA SWAP1 PUSH2 0x1525 JUMP JUMPDEST DUP1 PUSH1 0x1F ADD PUSH1 0x20 DUP1 SWAP2 DIV MUL PUSH1 0x20 ADD PUSH1 0x40 MLOAD SWAP1 DUP2 ADD PUSH1 0x40 MSTORE DUP1 SWAP3 SWAP2 SWAP1 DUP2 DUP2 MSTORE PUSH1 0x20 ADD DUP3 DUP1 SLOAD PUSH2 0x616 SWAP1 PUSH2 0x1525 JUMP JUMPDEST DUP1 ISZERO PUSH2 0x661 JUMPI DUP1 PUSH1 0x1F LT PUSH2 0x638 JUMPI PUSH2 0x100 DUP1 DUP4 SLOAD DIV MUL DUP4 MSTORE SWAP2 PUSH1 0x20 ADD SWAP2 PUSH2 0x661 JUMP JUMPDEST DUP3 ADD SWAP2 SWAP1 PUSH0 MSTORE PUSH1 0x20 PUSH0 KECCAK256 SWAP1 JUMPDEST DUP2 SLOAD DUP2 MSTORE SWAP1 PUSH1 0x1 ADD SWAP1 PUSH1 0x20 ADD DUP1 DUP4 GT PUSH2 0x644 JUMPI DUP3 SWAP1 SUB PUSH1 0x1F AND DUP3 ADD SWAP2 JUMPDEST POP POP POP POP POP DUP2 MSTORE POP POP SWAP1 POP DUP1 PUSH1 0x20 ADD MLOAD DUP2 PUSH1 0x40 ADD MLOAD DUP3 PUSH1 0x60 ADD MLOAD SWAP4 POP SWAP4 POP SWAP4 POP POP SWAP2 SWAP4 SWAP1 SWAP3 POP JUMP JUMPDEST PUSH0 DUP1 PUSH0 DUP4 DUP2 MSTORE PUSH1 0x20 ADD SWAP1 DUP2 MSTORE PUSH1 0x20 ADD PUSH0 KECCAK256 PUSH0 ADD PUSH0 SWAP1 SLOAD SWAP1 PUSH2 0x100 EXP SWAP1 DIV PUSH20 0xFFFFFFFFFFFFFFFFFFFFFFFFFFFFFFFFFFFFFFFF AND SWAP1 POP SWAP2 SWAP1 POP JUMP JUMPDEST PUSH0 PUSH1 0x1 PUSH0 DUP4 DUP2 MSTORE PUSH1 0x20 ADD SWAP1 DUP2 MSTORE PUSH1 0x20 ADD PUSH0 KECCAK256 PUSH0 CALLER PUSH20 0xFFFFFFFFFFFFFFFFFFFFFFFFFFFFFFFFFFFFFFFF AND PUSH20 0xFFFFFFFFFFFFFFFFFFFFFFFFFFFFFFFFFFFFFFFF AND DUP2 MSTORE PUSH1 0x20 ADD SWAP1 DUP2 MSTORE PUSH1 0x20 ADD PUSH0 KECCAK256 SWAP1 POP DUP1 PUSH1 0x2 ADD PUSH0 SWAP1 SLOAD SWAP1 PUSH2 0x100 EXP SWAP1 DIV PUSH1 0xFF AND PUSH2 0x762 JUMPI PUSH1 0x40 MLOAD PUSH32 0x8C379A000000000000000000000000000000000000000000000000000000000 DUP2 MSTORE PUSH1 0x4 ADD PUSH2 0x759 SWAP1 PUSH2 0x159F JUMP JUMPDEST PUSH1 0x40 MLOAD DUP1 SWAP2 SUB SWAP1 REVERT JUMPDEST PUSH0 DUP1 PUSH0 DUP5 DUP2 MSTORE PUSH1 0x20 ADD SWAP1 DUP2 MSTORE PUSH1 0x20 ADD PUSH0 KECCAK256 SWAP1 POP PUSH0 DUP2 PUSH1 0x1 ADD SLOAD GT ISZERO PUSH2 0x7C4 JUMPI PUSH0 DUP3 PUSH1 0x1 ADD SLOAD TIMESTAMP PUSH2 0x792 SWAP2 SWAP1 PUSH2 0x15EA JUMP JUMPDEST SWAP1 POP PUSH0 DUP3 PUSH1 0x1 ADD SLOAD DUP3 PUSH2 0x7A5 SWAP2 SWAP1 PUSH2 0x161D JUMP JUMPDEST SWAP1 POP DUP1 DUP5 PUSH1 0x3 ADD PUSH0 DUP3 DUP3 SLOAD PUSH2 0x7BA SWAP2 SWAP1 PUSH2 0x165E JUMP JUMPDEST SWAP3 POP POP DUP2 SWAP1 SSTORE POP POP POP JUMPDEST PUSH0 DUP3 PUSH1 0x3 ADD SLOAD SWAP1 POP PUSH1 0x1 PUSH0 DUP6 DUP2 MSTORE PUSH1 0x20 ADD SWAP1 DUP2 MSTORE PUSH1 0x20 ADD PUSH0 KECCAK256 PUSH0 CALLER PUSH20 0xFFFFFFFFFFFFFFFFFFFFFFFFFFFFFFFFFFFFFFFF AND PUSH20 0xFFFFFFFFFFFFFFFFFFFFFFFFFFFFFFFFFFFFFFFF AND DUP2 MSTORE PUSH1 0x20 ADD SWAP1 DUP2 MSTORE PUSH1 0x20 ADD PUSH0 KECCAK256 PUSH0 DUP1 DUP3 ADD PUSH0 SWAP1 SSTORE PUSH1 0x1 DUP3 ADD PUSH0 SWAP1 SSTORE PUSH1 0x2 DUP3 ADD PUSH0 PUSH2 0x100 EXP DUP2 SLOAD SWAP1 PUSH1 0xFF MUL NOT AND SWAP1 SSTORE PUSH1 0x3 DUP3 ADD PUSH0 SWAP1 SSTORE POP POP DUP1 CALLER PUSH20 0xFFFFFFFFFFFFFFFFFFFFFFFFFFFFFFFFFFFFFFFF AND PUSH0 DUP1 DUP8 DUP2 MSTORE PUSH1 0x20 ADD SWAP1 DUP2 MSTORE PUSH1 0x20 ADD PUSH0 KECCAK256 PUSH0 ADD PUSH0 SWAP1 SLOAD SWAP1 PUSH2 0x100 EXP SWAP1 DIV PUSH20 0xFFFFFFFFFFFFFFFFFFFFFFFFFFFFFFFFFFFFFFFF AND PUSH20 0xFFFFFFFFFFFFFFFFFFFFFFFFFFFFFFFFFFFFFFFF AND PUSH32 0x3174D139AFBCB29D1508F42509B8B84B5AD331BA22DBF220B88482C608F0EC89 DUP8 TIMESTAMP PUSH1 0x40 MLOAD PUSH2 0x8D3 SWAP3 SWAP2 SWAP1 PUSH2 0x1691 JUMP JUMPDEST PUSH1 0x40 MLOAD DUP1 SWAP2 SUB SWAP1 LOG4 POP POP POP POP JUMP JUMPDEST PUSH1 0x2 PUSH1 0x20 MSTORE DUP1 PUSH0 MSTORE PUSH1 0x40 PUSH0 KECCAK256 PUSH0 SWAP2 POP SWAP1 POP SLOAD DUP2 JUMP JUMPDEST PUSH1 0x1 PUSH1 0x20 MSTORE DUP2 PUSH0 MSTORE PUSH1 0x40 PUSH0 KECCAK256 PUSH1 0x20 MSTORE DUP1 PUSH0 MSTORE PUSH1 0x40 PUSH0 KECCAK256 PUSH0 SWAP2 POP SWAP2 POP POP DUP1 PUSH0 ADD SLOAD SWAP1 DUP1 PUSH1 0x1 ADD SLOAD SWAP1 DUP1 PUSH1 0x2 ADD PUSH0 SWAP1 SLOAD SWAP1 PUSH2 0x100 EXP SWAP1 DIV PUSH1 0xFF AND SWAP1 DUP1 PUSH1 0x3 ADD SLOAD SWAP1 POP DUP5 JUMP JUMPDEST PUSH1 0x60 PUSH0 DUP1 DUP4 DUP2 MSTORE PUSH1 0x20 ADD SWAP1 DUP2 MSTORE PUSH1 0x20 ADD PUSH0 KECCAK256 PUSH1 0x3 ADD PUSH0 SWAP1 SLOAD SWAP1 PUSH2 0x100 EXP SWAP1 DIV PUSH1 0xFF AND PUSH2 0x99A JUMPI PUSH1 0x40 MLOAD PUSH32 0x8C379A000000000000000000000000000000000000000000000000000000000 DUP2 MSTORE PUSH1 0x4 ADD PUSH2 0x991 SWAP1 PUSH2 0x1702 JUMP JUMPDEST PUSH1 0x40 MLOAD DUP1 SWAP2 SUB SWAP1 REVERT JUMPDEST PUSH0 DUP1 DUP4 DUP2 MSTORE PUSH1 0x20 ADD SWAP1 DUP2 MSTORE PUSH1 0x20 ADD PUSH0 KECCAK256 PUSH1 0x4 ADD DUP1 SLOAD PUSH2 0x9B8 SWAP1 PUSH2 0x1525 JUMP JUMPDEST DUP1 PUSH1 0x1F ADD PUSH1 0x20 DUP1 SWAP2 DIV MUL PUSH1 0x20 ADD PUSH1 0x40 MLOAD SWAP1 DUP2 ADD PUSH1 0x40 MSTORE DUP1 SWAP3 SWAP2 SWAP1 DUP2 DUP2 MSTORE PUSH1 0x20 ADD DUP3 DUP1 SLOAD PUSH2 0x9E4 SWAP1 PUSH2 0x1525 JUMP JUMPDEST DUP1 ISZERO PUSH2 0xA2F JUMPI DUP1 PUSH1 0x1F LT PUSH2 0xA06 JUMPI PUSH2 0x100 DUP1 DUP4 SLOAD DIV MUL DUP4 MSTORE SWAP2 PUSH1 0x20 ADD SWAP2 PUSH2 0xA2F JUMP JUMPDEST DUP3 ADD SWAP2 SWAP1 PUSH0 MSTORE PUSH1 0x20 PUSH0 KECCAK256 SWAP1 JUMPDEST DUP2 SLOAD DUP2 MSTORE SWAP1 PUSH1 0x1 ADD SWAP1 PUSH1 0x20 ADD DUP1 DUP4 GT PUSH2 0xA12 JUMPI DUP3 SWAP1 SUB PUSH1 0x1F AND DUP3 ADD SWAP2 JUMPDEST POP POP POP POP POP SWAP1 POP SWAP2 SWAP1 POP JUMP JUMPDEST PUSH0 DUP1 DUP6 GT DUP1 PUSH2 0xA49 JUMPI POP PUSH0 DUP5 GT JUMPDEST PUSH2 0xA88 JUMPI PUSH1 0x40 MLOAD PUSH32 0x8C379A000000000000000000000000000000000000000000000000000000000 DUP2 MSTORE PUSH1 0x4 ADD PUSH2 0xA7F SWAP1 PUSH2 0x176A JUMP JUMPDEST PUSH1 0x40 MLOAD DUP1 SWAP2 SUB SWAP1 REVERT JUMPDEST PUSH0 PUSH1 0x3 PUSH0 DUP2 SLOAD DUP1 SWAP3 SWAP2 SWAP1 PUSH2 0xA9B SWAP1 PUSH2 0x1788 JUMP JUMPDEST SWAP2 SWAP1 POP SSTORE SWAP1 POP PUSH1 0x40 MLOAD DUP1 PUSH1 0xA0 ADD PUSH1 0x40 MSTORE DUP1 CALLER PUSH20 0xFFFFFFFFFFFFFFFFFFFFFFFFFFFFFFFFFFFFFFFF AND DUP2 MSTORE PUSH1 0x20 ADD DUP8 DUP2 MSTORE PUSH1 0x20 ADD DUP7 DUP2 MSTORE PUSH1 0x20 ADD PUSH1 0x1 ISZERO ISZERO DUP2 MSTORE PUSH1 0x20 ADD DUP6 DUP6 DUP1 DUP1 PUSH1 0x1F ADD PUSH1 0x20 DUP1 SWAP2 DIV MUL PUSH1 0x20 ADD PUSH1 0x40 MLOAD SWAP1 DUP2 ADD PUSH1 0x40 MSTORE DUP1 SWAP4 SWAP3 SWAP2 SWAP1 DUP2 DUP2 MSTORE PUSH1 0x20 ADD DUP4 DUP4 DUP1 DUP3 DUP5 CALLDATACOPY PUSH0 DUP2 DUP5 ADD MSTORE PUSH1 0x1F NOT PUSH1 0x1F DUP3 ADD AND SWAP1 POP DUP1 DUP4 ADD SWAP3 POP POP POP POP POP POP POP DUP2 MSTORE POP PUSH0 DUP1 DUP4 DUP2 MSTORE PUSH1 0x20 ADD SWAP1 DUP2 MSTORE PUSH1 0x20 ADD PUSH0 KECCAK256 PUSH0 DUP3 ADD MLOAD DUP2 PUSH0 ADD PUSH0 PUSH2 0x100 EXP DUP2 SLOAD DUP2 PUSH20 0xFFFFFFFFFFFFFFFFFFFFFFFFFFFFFFFFFFFFFFFF MUL NOT AND SWAP1 DUP4 PUSH20 0xFFFFFFFFFFFFFFFFFFFFFFFFFFFFFFFFFFFFFFFF AND MUL OR SWAP1 SSTORE POP PUSH1 0x20 DUP3 ADD MLOAD DUP2 PUSH1 0x1 ADD SSTORE PUSH1 0x40 DUP3 ADD MLOAD DUP2 PUSH1 0x2 ADD SSTORE PUSH1 0x60 DUP3 ADD MLOAD DUP2 PUSH1 0x3 ADD PUSH0 PUSH2 0x100 EXP DUP2 SLOAD DUP2 PUSH1 0xFF MUL NOT AND SWAP1 DUP4 ISZERO ISZERO MUL OR SWAP1 SSTORE POP PUSH1 0x80 DUP3 ADD MLOAD DUP2 PUSH1 0x4 ADD SWAP1 DUP2 PUSH2 0xBC0 SWAP2 SWAP1 PUSH2 0x1999 JUMP JUMPDEST POP SWAP1 POP POP CALLER PUSH20 0xFFFFFFFFFFFFFFFFFFFFFFFFFFFFFFFFFFFFFFFF AND DUP2 PUSH32 0xAFE0F4381780AF81BC7E650445FE93D58AA20D51DFE209B88056BC7BD0D37C55 DUP9 DUP9 PUSH1 0x40 MLOAD PUSH2 0xC0D SWAP3 SWAP2 SWAP1 PUSH2 0x1691 JUMP JUMPDEST PUSH1 0x40 MLOAD DUP1 SWAP2 SUB SWAP1 LOG3 DUP1 SWAP2 POP POP SWAP5 SWAP4 POP POP POP POP JUMP JUMPDEST PUSH0 DUP2 GT PUSH2 0xC63 JUMPI PUSH1 0x40 MLOAD PUSH32 0x8C379A000000000000000000000000000000000000000000000000000000000 DUP2 MSTORE PUSH1 0x4 ADD PUSH2 0xC5A SWAP1 PUSH2 0x1AD8 JUMP JUMPDEST PUSH1 0x40 MLOAD DUP1 SWAP2 SUB SWAP1 REVERT JUMPDEST DUP1 PUSH1 0x2 PUSH0 DUP5 PUSH20 0xFFFFFFFFFFFFFFFFFFFFFFFFFFFFFFFFFFFFFFFF AND PUSH20 0xFFFFFFFFFFFFFFFFFFFFFFFFFFFFFFFFFFFFFFFF AND DUP2 MSTORE PUSH1 0x20 ADD SWAP1 DUP2 MSTORE PUSH1 0x20 ADD PUSH0 KECCAK256 PUSH0 DUP3 DUP3 SLOAD PUSH2 0xCAF SWAP2 SWAP1 PUSH2 0x165E JUMP JUMPDEST SWAP3 POP POP DUP2 SWAP1 SSTORE POP POP POP JUMP JUMPDEST PUSH0 PUSH1 0x20 MSTORE DUP1 PUSH0 MSTORE PUSH1 0x40 PUSH0 KECCAK256 PUSH0 SWAP2 POP SWAP1 POP DUP1 PUSH0 ADD PUSH0 SWAP1 SLOAD SWAP1 PUSH2 0x100 EXP SWAP1 DIV PUSH20 0xFFFFFFFFFFFFFFFFFFFFFFFFFFFFFFFFFFFFFFFF AND SWAP1 DUP1 PUSH1 0x1 ADD SLOAD SWAP1 DUP1 PUSH1 0x2 ADD SLOAD SWAP1 DUP1 PUSH1 0x3 ADD PUSH0 SWAP1 SLOAD SWAP1 PUSH2 0x100 EXP SWAP1 DIV PUSH1 0xFF AND SWAP1 DUP1 PUSH1 0x4 ADD DUP1 SLOAD PUSH2 0xD1B SWAP1 PUSH2 0x1525 JUMP JUMPDEST DUP1 PUSH1 0x1F ADD PUSH1 0x20 DUP1 SWAP2 DIV MUL PUSH1 0x20 ADD PUSH1 0x40 MLOAD SWAP1 DUP2 ADD PUSH1 0x40 MSTORE DUP1 SWAP3 SWAP2 SWAP1 DUP2 DUP2 MSTORE PUSH1 0x20 ADD DUP3 DUP1 SLOAD PUSH2 0xD47 SWAP1 PUSH2 0x1525 JUMP JUMPDEST DUP1 ISZERO PUSH2 0xD92 JUMPI DUP1 PUSH1 0x1F LT PUSH2 0xD69 JUMPI PUSH2 0x100 DUP1 DUP4 SLOAD DIV MUL DUP4 MSTORE SWAP2 PUSH1 0x20 ADD SWAP2 PUSH2 0xD92 JUMP JUMPDEST DUP3 ADD SWAP2 SWAP1 PUSH0 MSTORE PUSH1 0x20 PUSH0 KECCAK256 SWAP1 JUMPDEST DUP2 SLOAD DUP2 MSTORE SWAP1 PUSH1 0x1 ADD SWAP1 PUSH1 0x20 ADD DUP1 DUP4 GT PUSH2 0xD75 JUMPI DUP3 SWAP1 SUB PUSH1 0x1F AND DUP3 ADD SWAP2 JUMPDEST POP POP POP POP POP SWAP1 POP DUP6 JUMP JUMPDEST PUSH0 DUP1 PUSH0 DUP1 PUSH0 PUSH1 0x1 PUSH0 DUP9 DUP2 MSTORE PUSH1 0x20 ADD SWAP1 DUP2 MSTORE PUSH1 0x20 ADD PUSH0 KECCAK256 PUSH0 DUP8 PUSH20 0xFFFFFFFFFFFFFFFFFFFFFFFFFFFFFFFFFFFFFFFF AND PUSH20 0xFFFFFFFFFFFFFFFFFFFFFFFFFFFFFFFFFFFFFFFF AND DUP2 MSTORE PUSH1 0x20 ADD SWAP1 DUP2 MSTORE PUSH1 0x20 ADD PUSH0 KECCAK256 PUSH1 0x40 MLOAD DUP1 PUSH1 0x80 ADD PUSH1 0x40 MSTORE SWAP1 DUP2 PUSH0 DUP3 ADD SLOAD DUP2 MSTORE PUSH1 0x20 ADD PUSH1 0x1 DUP3 ADD SLOAD DUP2 MSTORE PUSH1 0x20 ADD PUSH1 0x2 DUP3 ADD PUSH0 SWAP1 SLOAD SWAP1 PUSH2 0x100 EXP SWAP1 DIV PUSH1 0xFF AND ISZERO ISZERO ISZERO ISZERO DUP2 MSTORE PUSH1 0x20 ADD PUSH1 0x3 DUP3 ADD SLOAD DUP2 MSTORE POP POP SWAP1 POP DUP1 PUSH0 ADD MLOAD DUP2 PUSH1 0x20 ADD MLOAD DUP3 PUSH1 0x40 ADD MLOAD DUP4 PUSH1 0x60 ADD MLOAD SWAP5 POP SWAP5 POP SWAP5 POP SWAP5 POP POP SWAP3 SWAP6 SWAP2 SWAP5 POP SWAP3 POP JUMP JUMPDEST PUSH0 DUP1 PUSH0 DUP4 DUP2 MSTORE PUSH1 0x20 ADD SWAP1 DUP2 MSTORE PUSH1 0x20 ADD PUSH0 KECCAK256 SWAP1 POP DUP1 PUSH1 0x3 ADD PUSH0 SWAP1 SLOAD SWAP1 PUSH2 0x100 EXP SWAP1 DIV PUSH1 0xFF AND PUSH2 0xEB9 JUMPI PUSH1 0x40 MLOAD PUSH32 0x8C379A000000000000000000000000000000000000000000000000000000000 DUP2 MSTORE PUSH1 0x4 ADD PUSH2 0xEB0 SWAP1 PUSH2 0x1702 JUMP JUMPDEST PUSH1 0x40 MLOAD DUP1 SWAP2 SUB SWAP1 REVERT JUMPDEST PUSH0 PUSH1 0x1 PUSH0 DUP5 DUP2 MSTORE PUSH1 0x20 ADD SWAP1 DUP2 MSTORE PUSH1 0x20 ADD PUSH0 KECCAK256 PUSH0 CALLER PUSH20 0xFFFFFFFFFFFFFFFFFFFFFFFFFFFFFFFFFFFFFFFF AND PUSH20 0xFFFFFFFFFFFFFFFFFFFFFFFFFFFFFFFFFFFFFFFF AND DUP2 MSTORE PUSH1 0x20 ADD SWAP1 DUP2 MSTORE PUSH1 0x20 ADD PUSH0 KECCAK256 SWAP1 POP DUP1 PUSH1 0x2 ADD PUSH0 SWAP1 SLOAD SWAP1 PUSH2 0x100 EXP SWAP1 DIV PUSH1 0xFF AND ISZERO PUSH2 0xF59 JUMPI PUSH1 0x40 MLOAD PUSH32 0x8C379A000000000000000000000000000000000000000000000000000000000 DUP2 MSTORE PUSH1 0x4 ADD PUSH2 0xF50 SWAP1 PUSH2 0x1B40 JUMP JUMPDEST PUSH1 0x40 MLOAD DUP1 SWAP2 SUB SWAP1 REVERT JUMPDEST TIMESTAMP DUP2 PUSH0 ADD DUP2 SWAP1 SSTORE POP TIMESTAMP DUP2 PUSH1 0x1 ADD DUP2 SWAP1 SSTORE POP PUSH1 0x1 DUP2 PUSH1 0x2 ADD PUSH0 PUSH2 0x100 EXP DUP2 SLOAD DUP2 PUSH1 0xFF MUL NOT AND SWAP1 DUP4 ISZERO ISZERO MUL OR SWAP1 SSTORE POP CALLER PUSH20 0xFFFFFFFFFFFFFFFFFFFFFFFFFFFFFFFFFFFFFFFF AND DUP4 PUSH32 0x765EE4960F08AAD7CF496291097A74B71AC25B0CDA25BFCE2A1651C822FB5738 TIMESTAMP PUSH1 0x40 MLOAD PUSH2 0xFCD SWAP2 SWAP1 PUSH2 0x1170 JUMP JUMPDEST PUSH1 0x40 MLOAD DUP1 SWAP2 SUB SWAP1 LOG3 POP POP POP JUMP JUMPDEST PUSH1 0x4 PUSH0 SWAP1 SLOAD SWAP1 PUSH2 0x100 EXP SWAP1 DIV PUSH20 0xFFFFFFFFFFFFFFFFFFFFFFFFFFFFFFFFFFFFFFFF AND DUP2 JUMP JUMPDEST PUSH0 DUP1 REVERT JUMPDEST PUSH0 DUP1 REVERT JUMPDEST PUSH0 PUSH20 0xFFFFFFFFFFFFFFFFFFFFFFFFFFFFFFFFFFFFFFFF DUP3 AND SWAP1 POP SWAP2 SWAP1 POP JUMP JUMPDEST PUSH0 PUSH2 0x1030 DUP3 PUSH2 0x1007 JUMP JUMPDEST SWAP1 POP SWAP2 SWAP1 POP JUMP JUMPDEST PUSH2 0x1040 DUP2 PUSH2 0x1026 JUMP JUMPDEST DUP2 EQ PUSH2 0x104A JUMPI PUSH0 DUP1 REVERT JUMPDEST POP JUMP JUMPDEST PUSH0 DUP2 CALLDATALOAD SWAP1 POP PUSH2 0x105B DUP2 PUSH2 0x1037 JUMP JUMPDEST SWAP3 SWAP2 POP POP JUMP JUMPDEST PUSH0 PUSH1 0x20 DUP3 DUP5 SUB SLT ISZERO PUSH2 0x1076 JUMPI PUSH2 0x1075 PUSH2 0xFFF JUMP JUMPDEST JUMPDEST PUSH0 PUSH2 0x1083 DUP5 DUP3 DUP6 ADD PUSH2 0x104D JUMP JUMPDEST SWAP2 POP POP SWAP3 SWAP2 POP POP JUMP JUMPDEST PUSH0 DUP2 SWAP1 POP SWAP2 SWAP1 POP JUMP JUMPDEST PUSH2 0x109E DUP2 PUSH2 0x108C JUMP JUMPDEST DUP2 EQ PUSH2 0x10A8 JUMPI PUSH0 DUP1 REVERT JUMPDEST POP JUMP JUMPDEST PUSH0 DUP2 CALLDATALOAD SWAP1 POP PUSH2 0x10B9 DUP2 PUSH2 0x1095 JUMP JUMPDEST SWAP3 SWAP2 POP POP JUMP JUMPDEST PUSH0 PUSH1 0x20 DUP3 DUP5 SUB SLT ISZERO PUSH2 0x10D4 JUMPI PUSH2 0x10D3 PUSH2 0xFFF JUMP JUMPDEST JUMPDEST PUSH0 PUSH2 0x10E1 DUP5 DUP3 DUP6 ADD PUSH2 0x10AB JUMP JUMPDEST SWAP2 POP POP SWAP3 SWAP2 POP POP JUMP JUMPDEST PUSH2 0x10F3 DUP2 PUSH2 0x108C JUMP JUMPDEST DUP3 MSTORE POP POP JUMP JUMPDEST PUSH0 DUP2 ISZERO ISZERO SWAP1 POP SWAP2 SWAP1 POP JUMP JUMPDEST PUSH2 0x110D DUP2 PUSH2 0x10F9 JUMP JUMPDEST DUP3 MSTORE POP POP JUMP JUMPDEST PUSH0 PUSH1 0x60 DUP3 ADD SWAP1 POP PUSH2 0x1126 PUSH0 DUP4 ADD DUP7 PUSH2 0x10EA JUMP JUMPDEST PUSH2 0x1133 PUSH1 0x20 DUP4 ADD DUP6 PUSH2 0x10EA JUMP JUMPDEST PUSH2 0x1140 PUSH1 0x40 DUP4 ADD DUP5 PUSH2 0x1104 JUMP JUMPDEST SWAP5 SWAP4 POP POP POP POP JUMP JUMPDEST PUSH2 0x1151 DUP2 PUSH2 0x1026 JUMP JUMPDEST DUP3 MSTORE POP POP JUMP JUMPDEST PUSH0 PUSH1 0x20 DUP3 ADD SWAP1 POP PUSH2 0x116A PUSH0 DUP4 ADD DUP5 PUSH2 0x1148 JUMP JUMPDEST SWAP3 SWAP2 POP POP JUMP JUMPDEST PUSH0 PUSH1 0x20 DUP3 ADD SWAP1 POP PUSH2 0x1183 PUSH0 DUP4 ADD DUP5 PUSH2 0x10EA JUMP JUMPDEST SWAP3 SWAP2 POP POP JUMP JUMPDEST PUSH0 DUP1 PUSH1 0x40 DUP4 DUP6 SUB SLT ISZERO PUSH2 0x119F JUMPI PUSH2 0x119E PUSH2 0xFFF JUMP JUMPDEST JUMPDEST PUSH0 PUSH2 0x11AC DUP6 DUP3 DUP7 ADD PUSH2 0x10AB JUMP JUMPDEST SWAP3 POP POP PUSH1 0x20 PUSH2 0x11BD DUP6 DUP3 DUP7 ADD PUSH2 0x104D JUMP JUMPDEST SWAP2 POP POP SWAP3 POP SWAP3 SWAP1 POP JUMP JUMPDEST PUSH0 PUSH1 0x80 DUP3 ADD SWAP1 POP PUSH2 0x11DA PUSH0 DUP4 ADD DUP8 PUSH2 0x10EA JUMP JUMPDEST PUSH2 0x11E7 PUSH1 0x20 DUP4 ADD DUP7 PUSH2 0x10EA JUMP JUMPDEST PUSH2 0x11F4 PUSH1 0x40 DUP4 ADD DUP6 PUSH2 0x1104 JUMP JUMPDEST PUSH2 0x1201 PUSH1 0x60 DUP4 ADD DUP5 PUSH2 0x10EA JUMP JUMPDEST SWAP6 SWAP5 POP POP POP POP POP JUMP JUMPDEST PUSH0 DUP2 MLOAD SWAP1 POP SWAP2 SWAP1 POP JUMP JUMPDEST PUSH0 DUP3 DUP3 MSTORE PUSH1 0x20 DUP3 ADD SWAP1 POP SWAP3 SWAP2 POP POP JUMP JUMPDEST DUP3 DUP2 DUP4 MCOPY PUSH0 DUP4 DUP4 ADD MSTORE POP POP POP JUMP JUMPDEST PUSH0 PUSH1 0x1F NOT PUSH1 0x1F DUP4 ADD AND SWAP1 POP SWAP2 SWAP1 POP JUMP JUMPDEST PUSH0 PUSH2 0x124C DUP3 PUSH2 0x120A JUMP JUMPDEST PUSH2 0x1256 DUP2 DUP6 PUSH2 0x1214 JUMP JUMPDEST SWAP4 POP PUSH2 0x1266 DUP2 DUP6 PUSH1 0x20 DUP7 ADD PUSH2 0x1224 JUMP JUMPDEST PUSH2 0x126F DUP2 PUSH2 0x1232 JUMP JUMPDEST DUP5 ADD SWAP2 POP POP SWAP3 SWAP2 POP POP JUMP JUMPDEST PUSH0 PUSH1 0x20 DUP3 ADD SWAP1 POP DUP2 DUP2 SUB PUSH0 DUP4 ADD MSTORE PUSH2 0x1292 DUP2 DUP5 PUSH2 0x1242 JUMP JUMPDEST SWAP1 POP SWAP3 SWAP2 POP POP JUMP JUMPDEST PUSH0 DUP1 REVERT JUMPDEST PUSH0 DUP1 REVERT JUMPDEST PUSH0 DUP1 REVERT JUMPDEST PUSH0 DUP1 DUP4 PUSH1 0x1F DUP5 ADD SLT PUSH2 0x12BB JUMPI PUSH2 0x12BA PUSH2 0x129A JUMP JUMPDEST JUMPDEST DUP3 CALLDATALOAD SWAP1 POP PUSH8 0xFFFFFFFFFFFFFFFF DUP2 GT ISZERO PUSH2 0x12D8 JUMPI PUSH2 0x12D7 PUSH2 0x129E JUMP JUMPDEST JUMPDEST PUSH1 0x20 DUP4 ADD SWAP2 POP DUP4 PUSH1 0x1 DUP3 MUL DUP4 ADD GT ISZERO PUSH2 0x12F4 JUMPI PUSH2 0x12F3 PUSH2 0x12A2 JUMP JUMPDEST JUMPDEST SWAP3 POP SWAP3 SWAP1 POP JUMP JUMPDEST PUSH0 DUP1 PUSH0 DUP1 PUSH1 0x60 DUP6 DUP8 SUB SLT ISZERO PUSH2 0x1313 JUMPI PUSH2 0x1312 PUSH2 0xFFF JUMP JUMPDEST JUMPDEST PUSH0 PUSH2 0x1320 DUP8 DUP3 DUP9 ADD PUSH2 0x10AB JUMP JUMPDEST SWAP5 POP POP PUSH1 0x20 PUSH2 0x1331 DUP8 DUP3 DUP9 ADD PUSH2 0x10AB JUMP JUMPDEST SWAP4 POP POP PUSH1 0x40 DUP6 ADD CALLDATALOAD PUSH8 0xFFFFFFFFFFFFFFFF DUP2 GT ISZERO PUSH2 0x1352 JUMPI PUSH2 0x1351 PUSH2 0x1003 JUMP JUMPDEST JUMPDEST PUSH2 0x135E DUP8 DUP3 DUP9 ADD PUSH2 0x12A6 JUMP JUMPDEST SWAP3 POP SWAP3 POP POP SWAP3 SWAP6 SWAP2 SWAP5 POP SWAP3 POP JUMP JUMPDEST PUSH0 DUP1 PUSH1 0x40 DUP4 DUP6 SUB SLT ISZERO PUSH2 0x1382 JUMPI PUSH2 0x1381 PUSH2 0xFFF JUMP JUMPDEST JUMPDEST PUSH0 PUSH2 0x138F DUP6 DUP3 DUP7 ADD PUSH2 0x104D JUMP JUMPDEST SWAP3 POP POP PUSH1 0x20 PUSH2 0x13A0 DUP6 DUP3 DUP7 ADD PUSH2 0x10AB JUMP JUMPDEST SWAP2 POP POP SWAP3 POP SWAP3 SWAP1 POP JUMP JUMPDEST PUSH0 PUSH1 0xA0 DUP3 ADD SWAP1 POP PUSH2 0x13BD PUSH0 DUP4 ADD DUP9 PUSH2 0x1148 JUMP JUMPDEST PUSH2 0x13CA PUSH1 0x20 DUP4 ADD DUP8 PUSH2 0x10EA JUMP JUMPDEST PUSH2 0x13D7 PUSH1 0x40 DUP4 ADD DUP7 PUSH2 0x10EA JUMP JUMPDEST PUSH2 0x13E4 PUSH1 0x60 DUP4 ADD DUP6 PUSH2 0x1104 JUMP JUMPDEST DUP2 DUP2 SUB PUSH1 0x80 DUP4 ADD MSTORE PUSH2 0x13F6 DUP2 DUP5 PUSH2 0x1242 JUMP JUMPDEST SWAP1 POP SWAP7 SWAP6 POP POP POP POP POP POP JUMP JUMPDEST PUSH32 0x4E6F2070656E64696E67207061796D656E747300000000000000000000000000 PUSH0 DUP3 ADD MSTORE POP JUMP JUMPDEST PUSH0 PUSH2 0x1436 PUSH1 0x13 DUP4 PUSH2 0x1214 JUMP JUMPDEST SWAP2 POP PUSH2 0x1441 DUP3 PUSH2 0x1402 JUMP JUMPDEST PUSH1 0x20 DUP3 ADD SWAP1 POP SWAP2 SWAP1 POP JUMP JUMPDEST PUSH0 PUSH1 0x20 DUP3 ADD SWAP1 POP DUP2 DUP2 SUB PUSH0 DUP4 ADD MSTORE PUSH2 0x1463 DUP2 PUSH2 0x142A JUMP JUMPDEST SWAP1 POP SWAP2 SWAP1 POP JUMP JUMPDEST PUSH32 0x5061796D656E7420616D6F756E74206D757374206D6174636820746865207265 PUSH0 DUP3 ADD MSTORE PUSH32 0x7175657374656420616D6F756E74000000000000000000000000000000000000 PUSH1 0x20 DUP3 ADD MSTORE POP JUMP JUMPDEST PUSH0 PUSH2 0x14C4 PUSH1 0x2E DUP4 PUSH2 0x1214 JUMP JUMPDEST SWAP2 POP PUSH2 0x14CF DUP3 PUSH2 0x146A JUMP JUMPDEST PUSH1 0x40 DUP3 ADD SWAP1 POP SWAP2 SWAP1 POP JUMP JUMPDEST PUSH0 PUSH1 0x20 DUP3 ADD SWAP1 POP DUP2 DUP2 SUB PUSH0 DUP4 ADD MSTORE PUSH2 0x14F1 DUP2 PUSH2 0x14B8 JUMP JUMPDEST SWAP1 POP SWAP2 SWAP1 POP JUMP JUMPDEST PUSH32 0x4E487B7100000000000000000000000000000000000000000000000000000000 PUSH0 MSTORE PUSH1 0x22 PUSH1 0x4 MSTORE PUSH1 0x24 PUSH0 REVERT JUMPDEST PUSH0 PUSH1 0x2 DUP3 DIV SWAP1 POP PUSH1 0x1 DUP3 AND DUP1 PUSH2 0x153C JUMPI PUSH1 0x7F DUP3 AND SWAP2 POP JUMPDEST PUSH1 0x20 DUP3 LT DUP2 SUB PUSH2 0x154F JUMPI PUSH2 0x154E PUSH2 0x14F8 JUMP JUMPDEST JUMPDEST POP SWAP2 SWAP1 POP JUMP JUMPDEST PUSH32 0x53747265616D206E6F7420616374697665000000000000000000000000000000 PUSH0 DUP3 ADD MSTORE POP JUMP JUMPDEST PUSH0 PUSH2 0x1589 PUSH1 0x11 DUP4 PUSH2 0x1214 JUMP JUMPDEST SWAP2 POP PUSH2 0x1594 DUP3 PUSH2 0x1555 JUMP JUMPDEST PUSH1 0x20 DUP3 ADD SWAP1 POP SWAP2 SWAP1 POP JUMP JUMPDEST PUSH0 PUSH1 0x20 DUP3 ADD SWAP1 POP DUP2 DUP2 SUB PUSH0 DUP4 ADD MSTORE PUSH2 0x15B6 DUP2 PUSH2 0x157D JUMP JUMPDEST SWAP1 POP SWAP2 SWAP1 POP JUMP JUMPDEST PUSH32 0x4E487B7100000000000000000000000000000000000000000000000000000000 PUSH0 MSTORE PUSH1 0x11 PUSH1 0x4 MSTORE PUSH1 0x24 PUSH0 REVERT JUMPDEST PUSH0 PUSH2 0x15F4 DUP3 PUSH2 0x108C JUMP JUMPDEST SWAP2 POP PUSH2 0x15FF DUP4 PUSH2 0x108C JUMP JUMPDEST SWAP3 POP DUP3 DUP3 SUB SWAP1 POP DUP2 DUP2 GT ISZERO PUSH2 0x1617 JUMPI PUSH2 0x1616 PUSH2 0x15BD JUMP JUMPDEST JUMPDEST SWAP3 SWAP2 POP POP JUMP JUMPDEST PUSH0 PUSH2 0x1627 DUP3 PUSH2 0x108C JUMP JUMPDEST SWAP2 POP PUSH2 0x1632 DUP4 PUSH2 0x108C JUMP JUMPDEST SWAP3 POP DUP3 DUP3 MUL PUSH2 0x1640 DUP2 PUSH2 0x108C JUMP JUMPDEST SWAP2 POP DUP3 DUP3 DIV DUP5 EQ DUP4 ISZERO OR PUSH2 0x1657 JUMPI PUSH2 0x1656 PUSH2 0x15BD JUMP JUMPDEST JUMPDEST POP SWAP3 SWAP2 POP POP JUMP JUMPDEST PUSH0 PUSH2 0x1668 DUP3 PUSH2 0x108C JUMP JUMPDEST SWAP2 POP PUSH2 0x1673 DUP4 PUSH2 0x108C JUMP JUMPDEST SWAP3 POP DUP3 DUP3 ADD SWAP1 POP DUP1 DUP3 GT ISZERO PUSH2 0x168B JUMPI PUSH2 0x168A PUSH2 0x15BD JUMP JUMPDEST JUMPDEST SWAP3 SWAP2 POP POP JUMP JUMPDEST PUSH0 PUSH1 0x40 DUP3 ADD SWAP1 POP PUSH2 0x16A4 PUSH0 DUP4 ADD DUP6 PUSH2 0x10EA JUMP JUMPDEST PUSH2 0x16B1 PUSH1 0x20 DUP4 ADD DUP5 PUSH2 0x10EA JUMP JUMPDEST SWAP4 SWAP3 POP POP POP JUMP JUMPDEST PUSH32 0x436F6E74656E74206E6F7420617661696C61626C650000000000000000000000 PUSH0 DUP3 ADD MSTORE POP JUMP JUMPDEST PUSH0 PUSH2 0x16EC PUSH1 0x15 DUP4 PUSH2 0x1214 JUMP JUMPDEST SWAP2 POP PUSH2 0x16F7 DUP3 PUSH2 0x16B8 JUMP JUMPDEST PUSH1 0x20 DUP3 ADD SWAP1 POP SWAP2 SWAP1 POP JUMP JUMPDEST PUSH0 PUSH1 0x20 DUP3 ADD SWAP1 POP DUP2 DUP2 SUB PUSH0 DUP4 ADD MSTORE PUSH2 0x1719 DUP2 PUSH2 0x16E0 JUMP JUMPDEST SWAP1 POP SWAP2 SWAP1 POP JUMP JUMPDEST PUSH32 0x496E76616C69642070726963696E670000000000000000000000000000000000 PUSH0 DUP3 ADD MSTORE POP JUMP JUMPDEST PUSH0 PUSH2 0x1754 PUSH1 0xF DUP4 PUSH2 0x1214 JUMP JUMPDEST SWAP2 POP PUSH2 0x175F DUP3 PUSH2 0x1720 JUMP JUMPDEST PUSH1 0x20 DUP3 ADD SWAP1 POP SWAP2 SWAP1 POP JUMP JUMPDEST PUSH0 PUSH1 0x20 DUP3 ADD SWAP1 POP DUP2 DUP2 SUB PUSH0 DUP4 ADD MSTORE PUSH2 0x1781 DUP2 PUSH2 0x1748 JUMP JUMPDEST SWAP1 POP SWAP2 SWAP1 POP JUMP JUMPDEST PUSH0 PUSH2 0x1792 DUP3 PUSH2 0x108C JUMP JUMPDEST SWAP2 POP PUSH32 0xFFFFFFFFFFFFFFFFFFFFFFFFFFFFFFFFFFFFFFFFFFFFFFFFFFFFFFFFFFFFFFFF DUP3 SUB PUSH2 0x17C4 JUMPI PUSH2 0x17C3 PUSH2 0x15BD JUMP JUMPDEST JUMPDEST PUSH1 0x1 DUP3 ADD SWAP1 POP SWAP2 SWAP1 POP JUMP JUMPDEST PUSH32 0x4E487B7100000000000000000000000000000000000000000000000000000000 PUSH0 MSTORE PUSH1 0x41 PUSH1 0x4 MSTORE PUSH1 0x24 PUSH0 REVERT JUMPDEST PUSH0 DUP2 SWAP1 POP DUP2 PUSH0 MSTORE PUSH1 0x20 PUSH0 KECCAK256 SWAP1 POP SWAP2 SWAP1 POP JUMP JUMPDEST PUSH0 PUSH1 0x20 PUSH1 0x1F DUP4 ADD DIV SWAP1 POP SWAP2 SWAP1 POP JUMP JUMPDEST PUSH0 DUP3 DUP3 SHL SWAP1 POP SWAP3 SWAP2 POP POP JUMP JUMPDEST PUSH0 PUSH1 0x8 DUP4 MUL PUSH2 0x1858 PUSH32 0xFFFFFFFFFFFFFFFFFFFFFFFFFFFFFFFFFFFFFFFFFFFFFFFFFFFFFFFFFFFFFFFF DUP3 PUSH2 0x181D JUMP JUMPDEST PUSH2 0x1862 DUP7 DUP4 PUSH2 0x181D JUMP JUMPDEST SWAP6 POP DUP1 NOT DUP5 AND SWAP4 POP DUP1 DUP7 AND DUP5 OR SWAP3 POP POP POP SWAP4 SWAP3 POP POP POP JUMP JUMPDEST PUSH0 DUP2 SWAP1 POP SWAP2 SWAP1 POP JUMP JUMPDEST PUSH0 PUSH2 0x189D PUSH2 0x1898 PUSH2 0x1893 DUP5 PUSH2 0x108C JUMP JUMPDEST PUSH2 0x187A JUMP JUMPDEST PUSH2 0x108C JUMP JUMPDEST SWAP1 POP SWAP2 SWAP1 POP JUMP JUMPDEST PUSH0 DUP2 SWAP1 POP SWAP2 SWAP1 POP JUMP JUMPDEST PUSH2 0x18B6 DUP4 PUSH2 0x1883 JUMP JUMPDEST PUSH2 0x18CA PUSH2 0x18C2 DUP3 PUSH2 0x18A4 JUMP JUMPDEST DUP5 DUP5 SLOAD PUSH2 0x1829 JUMP JUMPDEST DUP3 SSTORE POP POP POP POP JUMP JUMPDEST PUSH0 SWAP1 JUMP JUMPDEST PUSH2 0x18DE PUSH2 0x18D2 JUMP JUMPDEST PUSH2 0x18E9 DUP2 DUP5 DUP5 PUSH2 0x18AD JUMP JUMPDEST POP POP POP JUMP JUMPDEST JUMPDEST DUP2 DUP2 LT ISZERO PUSH2 0x190C JUMPI PUSH2 0x1901 PUSH0 DUP3 PUSH2 0x18D6 JUMP JUMPDEST PUSH1 0x1 DUP2 ADD SWAP1 POP PUSH2 0x18EF JUMP JUMPDEST POP POP JUMP JUMPDEST PUSH1 0x1F DUP3 GT ISZERO PUSH2 0x1951 JUMPI PUSH2 0x1922 DUP2 PUSH2 0x17FC JUMP JUMPDEST PUSH2 0x192B DUP5 PUSH2 0x180E JUMP JUMPDEST DUP2 ADD PUSH1 0x20 DUP6 LT ISZERO PUSH2 0x193A JUMPI DUP2 SWAP1 POP JUMPDEST PUSH2 0x194E PUSH2 0x1946 DUP6 PUSH2 0x180E JUMP JUMPDEST DUP4 ADD DUP3 PUSH2 0x18EE JUMP JUMPDEST POP POP JUMPDEST POP POP POP JUMP JUMPDEST PUSH0 DUP3 DUP3 SHR SWAP1 POP SWAP3 SWAP2 POP POP JUMP JUMPDEST PUSH0 PUSH2 0x1971 PUSH0 NOT DUP5 PUSH1 0x8 MUL PUSH2 0x1956 JUMP JUMPDEST NOT DUP1 DUP4 AND SWAP2 POP POP SWAP3 SWAP2 POP POP JUMP JUMPDEST PUSH0 PUSH2 0x1989 DUP4 DUP4 PUSH2 0x1962 JUMP JUMPDEST SWAP2 POP DUP3 PUSH1 0x2 MUL DUP3 OR SWAP1 POP SWAP3 SWAP2 POP POP JUMP JUMPDEST PUSH2 0x19A2 DUP3 PUSH2 0x120A JUMP JUMPDEST PUSH8 0xFFFFFFFFFFFFFFFF DUP2 GT ISZERO PUSH2 0x19BB JUMPI PUSH2 0x19BA PUSH2 0x17CF JUMP JUMPDEST JUMPDEST PUSH2 0x19C5 DUP3 SLOAD PUSH2 0x1525 JUMP JUMPDEST PUSH2 0x19D0 DUP3 DUP3 DUP6 PUSH2 0x1910 JUMP JUMPDEST PUSH0 PUSH1 0x20 SWAP1 POP PUSH1 0x1F DUP4 GT PUSH1 0x1 DUP2 EQ PUSH2 0x1A01 JUMPI PUSH0 DUP5 ISZERO PUSH2 0x19EF JUMPI DUP3 DUP8 ADD MLOAD SWAP1 POP JUMPDEST PUSH2 0x19F9 DUP6 DUP3 PUSH2 0x197E JUMP JUMPDEST DUP7 SSTORE POP PUSH2 0x1A60 JUMP JUMPDEST PUSH1 0x1F NOT DUP5 AND PUSH2 0x1A0F DUP7 PUSH2 0x17FC JUMP JUMPDEST PUSH0 JUMPDEST DUP3 DUP2 LT ISZERO PUSH2 0x1A36 JUMPI DUP5 DUP10 ADD MLOAD DUP3 SSTORE PUSH1 0x1 DUP3 ADD SWAP2 POP PUSH1 0x20 DUP6 ADD SWAP5 POP PUSH1 0x20 DUP2 ADD SWAP1 POP PUSH2 0x1A11 JUMP JUMPDEST DUP7 DUP4 LT ISZERO PUSH2 0x1A53 JUMPI DUP5 DUP10 ADD MLOAD PUSH2 0x1A4F PUSH1 0x1F DUP10 AND DUP3 PUSH2 0x1962 JUMP JUMPDEST DUP4 SSTORE POP JUMPDEST PUSH1 0x1 PUSH1 0x2 DUP9 MUL ADD DUP9 SSTORE POP POP POP JUMPDEST POP POP POP POP POP POP JUMP JUMPDEST PUSH32 0x5061796D656E7420616D6F756E74206D75737420626520677265617465722074 PUSH0 DUP3 ADD MSTORE PUSH32 0x68616E2030000000000000000000000000000000000000000000000000000000 PUSH1 0x20 DUP3 ADD MSTORE POP JUMP JUMPDEST PUSH0 PUSH2 0x1AC2 PUSH1 0x25 DUP4 PUSH2 0x1214 JUMP JUMPDEST SWAP2 POP PUSH2 0x1ACD DUP3 PUSH2 0x1A68 JUMP JUMPDEST PUSH1 0x40 DUP3 ADD SWAP1 POP SWAP2 SWAP1 POP JUMP JUMPDEST PUSH0 PUSH1 0x20 DUP3 ADD SWAP1 POP DUP2 DUP2 SUB PUSH0 DUP4 ADD MSTORE PUSH2 0x1AEF DUP2 PUSH2 0x1AB6 JUMP JUMPDEST SWAP1 POP SWAP2 SWAP1 POP JUMP JUMPDEST PUSH32 0x53747265616D20616C7265616479206163746976650000000000000000000000 PUSH0 DUP3 ADD MSTORE POP JUMP JUMPDEST PUSH0 PUSH2 0x1B2A PUSH1 0x15 DUP4 PUSH2 0x1214 JUMP JUMPDEST SWAP2 POP PUSH2 0x1B35 DUP3 PUSH2 0x1AF6 JUMP JUMPDEST PUSH1 0x20 DUP3 ADD SWAP1 POP SWAP2 SWAP1 POP JUMP JUMPDEST PUSH0 PUSH1 0x20 DUP3 ADD SWAP1 POP DUP2 DUP2 SUB PUSH0 DUP4 ADD MSTORE PUSH2 0x1B57 DUP2 PUSH2 0x1B1E JUMP JUMPDEST SWAP1 POP SWAP2 SWAP1 POP JUMP INVALID LOG2 PUSH5 0x6970667358 0x22 SLT KECCAK256 LT BLOCKHASH CHAINID 0xC5 SUB CALL 0x2F DUP9 0xB3 0xF PUSH12 0xA0D6D11ACBD8AB4C90A04DCF 0xC6 SIGNEXTEND DUP12 RETURNDATACOPY 0xB6 0x25 SHR SELFBALANCE BASEFEE PUSH5 0x736F6C6343 STOP ADDMOD BYTE STOP CALLER "
		},
		"gasEstimates": {
			"creation": {
				"codeDepositCost": "1412000",
				"executionCost": "infinite",
				"totalCost": "infinite"
			},
			"external": {
				"addContent(uint256,uint256,string)": "infinite",
				"addPendingPayment(address,uint256)": "infinite",
				"content(uint256)": "infinite",
				"getContentCreator(uint256)": "2880",
				"getContentPricing(uint256)": "infinite",
				"getContentUri(uint256)": "infinite",
				"getStreamSession(uint256,address)": "infinite",
				"pauseStream(uint256)": "infinite",
				"pendingPayments(address)": "2869",
				"platformWallet()": "2596",
				"startStream(uint256)": "infinite",
				"startVerification(address)": "1634",
				"streamSessions(uint256,address)": "infinite",
				"verifyPayment(address)": "9987"
			}
		},
		"methodIdentifiers": {
			"addContent(uint256,uint256,string)": "b3d5739c",
			"addPendingPayment(address,uint256)": "ba5bea09",
			"content(uint256)": "baa0b806",
			"getContentCreator(uint256)": "69322438",
			"getContentPricing(uint256)": "3b5f351b",
			"getContentUri(uint256)": "a497aeab",
			"getStreamSession(uint256,address)": "d9226105",
			"pauseStream(uint256)": "746ff13d",
			"pendingPayments(address)": "7f38e526",
			"platformWallet()": "fa2af9da",
			"startStream(uint256)": "f3b65fb2",
			"startVerification(address)": "18499170",
			"streamSessions(uint256,address)": "85852055",
			"verifyPayment(address)": "1df9feaa"
		}
	},
	"abi": [
		{
			"inputs": [
				{
					"internalType": "address",
					"name": "_platformWallet",
					"type": "address"
				}
			],
			"stateMutability": "nonpayable",
			"type": "constructor"
		},
		{
			"anonymous": false,
			"inputs": [
				{
					"indexed": true,
					"internalType": "uint256",
					"name": "contentId",
					"type": "uint256"
				},
				{
					"indexed": true,
					"internalType": "address",
					"name": "creator",
					"type": "address"
				},
				{
					"indexed": false,
					"internalType": "uint256",
					"name": "pricePerSecond",
					"type": "uint256"
				},
				{
					"indexed": false,
					"internalType": "uint256",
					"name": "flatPrice",
					"type": "uint256"
				}
			],
			"name": "ContentAdded",
			"type": "event"
		},
		{
			"anonymous": false,
			"inputs": [
				{
					"indexed": false,
					"internalType": "uint256",
					"name": "contentId",
					"type": "uint256"
				},
				{
					"indexed": true,
					"internalType": "address",
					"name": "creator",
					"type": "address"
				},
				{
					"indexed": true,
					"internalType": "address",
					"name": "user",
					"type": "address"
				},
				{
					"indexed": false,
					"internalType": "uint256",
					"name": "endTime",
					"type": "uint256"
				},
				{
					"indexed": true,
					"internalType": "uint256",
					"name": "amountPaid",
					"type": "uint256"
				}
			],
			"name": "StreamPaused",
			"type": "event"
		},
		{
			"anonymous": false,
			"inputs": [
				{
					"indexed": true,
					"internalType": "uint256",
					"name": "contentId",
					"type": "uint256"
				},
				{
					"indexed": true,
					"internalType": "address",
					"name": "user",
					"type": "address"
				},
				{
					"indexed": false,
					"internalType": "uint256",
					"name": "startTime",
					"type": "uint256"
				}
			],
			"name": "StreamStarted",
			"type": "event"
		},
		{
			"anonymous": false,
			"inputs": [
				{
					"indexed": true,
					"internalType": "address",
					"name": "user",
					"type": "address"
				}
			],
			"name": "VerifyPayment",
			"type": "event"
		},
		{
			"inputs": [
				{
					"internalType": "uint256",
					"name": "_pricePerSecond",
					"type": "uint256"
				},
				{
					"internalType": "uint256",
					"name": "_flatPrice",
					"type": "uint256"
				},
				{
					"internalType": "string",
					"name": "_contentUri",
					"type": "string"
				}
			],
			"name": "addContent",
			"outputs": [
				{
					"internalType": "uint256",
					"name": "",
					"type": "uint256"
				}
			],
			"stateMutability": "nonpayable",
			"type": "function"
		},
		{
			"inputs": [
				{
					"internalType": "address",
					"name": "user",
					"type": "address"
				},
				{
					"internalType": "uint256",
					"name": "amount",
					"type": "uint256"
				}
			],
			"name": "addPendingPayment",
			"outputs": [],
			"stateMutability": "nonpayable",
			"type": "function"
		},
		{
			"inputs": [
				{
					"internalType": "uint256",
					"name": "",
					"type": "uint256"
				}
			],
			"name": "content",
			"outputs": [
				{
					"internalType": "address",
					"name": "creator",
					"type": "address"
				},
				{
					"internalType": "uint256",
					"name": "pricePerSecond",
					"type": "uint256"
				},
				{
					"internalType": "uint256",
					"name": "flatPrice",
					"type": "uint256"
				},
				{
					"internalType": "bool",
					"name": "isActive",
					"type": "bool"
				},
				{
					"internalType": "string",
					"name": "contentUri",
					"type": "string"
				}
			],
			"stateMutability": "view",
			"type": "function"
		},
		{
			"inputs": [
				{
					"internalType": "uint256",
					"name": "contentId",
					"type": "uint256"
				}
			],
			"name": "getContentCreator",
			"outputs": [
				{
					"internalType": "address",
					"name": "creator",
					"type": "address"
				}
			],
			"stateMutability": "view",
			"type": "function"
		},
		{
			"inputs": [
				{
					"internalType": "uint256",
					"name": "contentId",
					"type": "uint256"
				}
			],
			"name": "getContentPricing",
			"outputs": [
				{
					"internalType": "uint256",
					"name": "pricePerSecond",
					"type": "uint256"
				},
				{
					"internalType": "uint256",
					"name": "flatPrice",
					"type": "uint256"
				},
				{
					"internalType": "bool",
					"name": "isActive",
					"type": "bool"
				}
			],
			"stateMutability": "view",
			"type": "function"
		},
		{
			"inputs": [
				{
					"internalType": "uint256",
					"name": "_contentId",
					"type": "uint256"
				}
			],
			"name": "getContentUri",
			"outputs": [
				{
					"internalType": "string",
					"name": "",
					"type": "string"
				}
			],
			"stateMutability": "view",
			"type": "function"
		},
		{
			"inputs": [
				{
					"internalType": "uint256",
					"name": "_contentId",
					"type": "uint256"
				},
				{
					"internalType": "address",
					"name": "user",
					"type": "address"
				}
			],
			"name": "getStreamSession",
			"outputs": [
				{
					"internalType": "uint256",
					"name": "startTime",
					"type": "uint256"
				},
				{
					"internalType": "uint256",
					"name": "lastUpdateTime",
					"type": "uint256"
				},
				{
					"internalType": "bool",
					"name": "isActive",
					"type": "bool"
				},
				{
					"internalType": "uint256",
					"name": "totalPaid",
					"type": "uint256"
				}
			],
			"stateMutability": "view",
			"type": "function"
		},
		{
			"inputs": [
				{
					"internalType": "uint256",
					"name": "_contentId",
					"type": "uint256"
				}
			],
			"name": "pauseStream",
			"outputs": [],
			"stateMutability": "nonpayable",
			"type": "function"
		},
		{
			"inputs": [
				{
					"internalType": "address",
					"name": "",
					"type": "address"
				}
			],
			"name": "pendingPayments",
			"outputs": [
				{
					"internalType": "uint256",
					"name": "",
					"type": "uint256"
				}
			],
			"stateMutability": "view",
			"type": "function"
		},
		{
			"inputs": [],
			"name": "platformWallet",
			"outputs": [
				{
					"internalType": "address",
					"name": "",
					"type": "address"
				}
			],
			"stateMutability": "view",
			"type": "function"
		},
		{
			"inputs": [
				{
					"internalType": "uint256",
					"name": "_contentId",
					"type": "uint256"
				}
			],
			"name": "startStream",
			"outputs": [],
			"stateMutability": "nonpayable",
			"type": "function"
		},
		{
			"inputs": [
				{
					"internalType": "address",
					"name": "user",
					"type": "address"
				}
			],
			"name": "startVerification",
			"outputs": [],
			"stateMutability": "nonpayable",
			"type": "function"
		},
		{
			"inputs": [
				{
					"internalType": "uint256",
					"name": "",
					"type": "uint256"
				},
				{
					"internalType": "address",
					"name": "",
					"type": "address"
				}
			],
			"name": "streamSessions",
			"outputs": [
				{
					"internalType": "uint256",
					"name": "startTime",
					"type": "uint256"
				},
				{
					"internalType": "uint256",
					"name": "lastUpdateTime",
					"type": "uint256"
				},
				{
					"internalType": "bool",
					"name": "isActive",
					"type": "bool"
				},
				{
					"internalType": "uint256",
					"name": "totalPaid",
					"type": "uint256"
				}
			],
			"stateMutability": "view",
			"type": "function"
		},
		{
			"inputs": [
				{
					"internalType": "address",
					"name": "user",
					"type": "address"
				}
			],
			"name": "verifyPayment",
			"outputs": [],
			"stateMutability": "payable",
			"type": "function"
		}
	]
}